{"abi":[{"type":"constructor","inputs":[{"name":"_treasury","type":"address","internalType":"address"}],"stateMutability":"nonpayable"},{"type":"receive","stateMutability":"payable"},{"type":"function","name":"createPolicy","inputs":[{"name":"_name","type":"string","internalType":"string"},{"name":"_threshold","type":"uint256","internalType":"uint256"},{"name":"_premium","type":"uint256","internalType":"uint256"},{"name":"_season","type":"uint256","internalType":"uint256"},{"name":"_seasonStart","type":"uint256","internalType":"uint256"},{"name":"_seasonEnd","type":"uint256","internalType":"uint256"},{"name":"_subscriptionDeadline","type":"uint256","internalType":"uint256"},{"name":"_coversFullSeason","type":"bool","internalType":"bool"}],"outputs":[],"stateMutability":"nonpayable"},{"type":"function","name":"farmerPolicies","inputs":[{"name":"","type":"address","internalType":"address"},{"name":"","type":"uint256","internalType":"uint256"},{"name":"","type":"uint256","internalType":"uint256"}],"outputs":[{"name":"policyId","type":"uint256","internalType":"uint256"},{"name":"timestamp","type":"uint256","internalType":"uint256"}],"stateMutability":"view"},{"type":"function","name":"farmerSeasonFullCover","inputs":[{"name":"","type":"address","internalType":"address"},{"name":"","type":"uint256","internalType":"uint256"}],"outputs":[{"name":"","type":"bool","internalType":"bool"}],"stateMutability":"view"},{"type":"function","name":"getFarmerPolicies","inputs":[{"name":"_farmer","type":"address","internalType":"address"},{"name":"_season","type":"uint256","internalType":"uint256"}],"outputs":[{"name":"","type":"tuple[]","internalType":"struct PolicyManager.Subscription[]","components":[{"name":"policyId","type":"uint256","internalType":"uint256"},{"name":"timestamp","type":"uint256","internalType":"uint256"}]}],"stateMutability":"view"},{"type":"function","name":"getHistoricalSubscribers","inputs":[{"name":"_policyId","type":"uint256","internalType":"uint256"},{"name":"_season","type":"uint256","internalType":"uint256"}],"outputs":[{"name":"","type":"address[]","internalType":"address[]"}],"stateMutability":"view"},{"type":"function","name":"getPolicyDetails","inputs":[{"name":"_policyId","type":"uint256","internalType":"uint256"}],"outputs":[{"name":"name","type":"string","internalType":"string"},{"name":"threshold","type":"uint256","internalType":"uint256"},{"name":"premium","type":"uint256","internalType":"uint256"},{"name":"status","type":"uint8","internalType":"enum PolicyManager.PolicyStatus"},{"name":"season","type":"uint256","internalType":"uint256"},{"name":"seasonStart","type":"uint256","internalType":"uint256"},{"name":"seasonEnd","type":"uint256","internalType":"uint256"},{"name":"subscriptionDeadline","type":"uint256","internalType":"uint256"},{"name":"coversFullSeason","type":"bool","internalType":"bool"},{"name":"subscriberCount","type":"uint256","internalType":"uint256"}],"stateMutability":"view"},{"type":"function","name":"historicalSubscribers","inputs":[{"name":"","type":"uint256","internalType":"uint256"},{"name":"","type":"uint256","internalType":"uint256"},{"name":"","type":"uint256","internalType":"uint256"}],"outputs":[{"name":"","type":"address","internalType":"address"}],"stateMutability":"view"},{"type":"function","name":"markPolicyAsPayout","inputs":[{"name":"_policyId","type":"uint256","internalType":"uint256"}],"outputs":[],"stateMutability":"nonpayable"},{"type":"function","name":"nextPolicyId","inputs":[],"outputs":[{"name":"","type":"uint256","internalType":"uint256"}],"stateMutability":"view"},{"type":"function","name":"owner","inputs":[],"outputs":[{"name":"","type":"address","internalType":"address"}],"stateMutability":"view"},{"type":"function","name":"pausePolicy","inputs":[{"name":"_policyId","type":"uint256","internalType":"uint256"}],"outputs":[],"stateMutability":"nonpayable"},{"type":"function","name":"payoutEngine","inputs":[],"outputs":[{"name":"","type":"address","internalType":"address"}],"stateMutability":"view"},{"type":"function","name":"resetSeasonState","inputs":[{"name":"_policyId","type":"uint256","internalType":"uint256"}],"outputs":[],"stateMutability":"nonpayable"},{"type":"function","name":"resumePolicy","inputs":[{"name":"_policyId","type":"uint256","internalType":"uint256"}],"outputs":[],"stateMutability":"nonpayable"},{"type":"function","name":"setPayoutEngine","inputs":[{"name":"_payoutEngine","type":"address","internalType":"address"}],"outputs":[],"stateMutability":"nonpayable"},{"type":"function","name":"subscribe","inputs":[{"name":"_policyId","type":"uint256","internalType":"uint256"}],"outputs":[],"stateMutability":"payable"},{"type":"function","name":"treasury","inputs":[],"outputs":[{"name":"","type":"address","internalType":"address"}],"stateMutability":"view"},{"type":"event","name":"PayoutTriggered","inputs":[{"name":"policyId","type":"uint256","indexed":true,"internalType":"uint256"}],"anonymous":false},{"type":"event","name":"PolicyCreated","inputs":[{"name":"id","type":"uint256","indexed":true,"internalType":"uint256"},{"name":"name","type":"string","indexed":false,"internalType":"string"},{"name":"season","type":"uint256","indexed":false,"internalType":"uint256"}],"anonymous":false},{"type":"event","name":"PolicyStatusChanged","inputs":[{"name":"policyId","type":"uint256","indexed":true,"internalType":"uint256"},{"name":"newStatus","type":"uint8","indexed":false,"internalType":"enum PolicyManager.PolicyStatus"}],"anonymous":false},{"type":"event","name":"SeasonReset","inputs":[{"name":"policyId","type":"uint256","indexed":true,"internalType":"uint256"},{"name":"newSeason","type":"uint256","indexed":false,"internalType":"uint256"}],"anonymous":false},{"type":"event","name":"Subscribed","inputs":[{"name":"farmer","type":"address","indexed":true,"internalType":"address"},{"name":"policyId","type":"uint256","indexed":true,"internalType":"uint256"},{"name":"season","type":"uint256","indexed":false,"internalType":"uint256"}],"anonymous":false}],"bytecode":{"object":"0x60806040526001600355348015610014575f5ffd5b50604051612a74380380612a7483398181016040528101906100369190610119565b335f5f6101000a81548173ffffffffffffffffffffffffffffffffffffffff021916908373ffffffffffffffffffffffffffffffffffffffff1602179055508060015f6101000a81548173ffffffffffffffffffffffffffffffffffffffff021916908373ffffffffffffffffffffffffffffffffffffffff16021790555050610144565b5f5ffd5b5f73ffffffffffffffffffffffffffffffffffffffff82169050919050565b5f6100e8826100bf565b9050919050565b6100f8816100de565b8114610102575f5ffd5b50565b5f81519050610113816100ef565b92915050565b5f6020828403121561012e5761012d6100bb565b5b5f61013b84828501610105565b91505092915050565b612923806101515f395ff3fe608060405260043610610101575f3560e01c80638da5cb5b11610094578063c362d54c11610063578063c362d54c14610334578063cad0b8db14610371578063cc0380101461039b578063e733fb3c146103e0578063f70581441461040a57610108565b80638da5cb5b1461027e57806390c2fc06146102a8578063a4a3edc2146102e4578063bef3d6f71461030c57610108565b8063648315a6116100d0578063648315a6146101ca5780636f7657b1146101f257806370b0d2f61461022e57806372936da61461025657610108565b80630f574ba71461010c5780633ae18a5a14610128578063449018a81461016457806361d027b3146101a057610108565b3661010857005b5f5ffd5b6101266004803603810190610121919061182b565b610432565b005b348015610133575f5ffd5b5061014e600480360381019061014991906118b0565b61097e565b60405161015b91906119d2565b60405180910390f35b34801561016f575f5ffd5b5061018a600480360381019061018591906118b0565b610a3a565b6040516101979190611a0c565b60405180910390f35b3480156101ab575f5ffd5b506101b4610a64565b6040516101c19190611a34565b60405180910390f35b3480156101d5575f5ffd5b506101f060048036038101906101eb919061182b565b610a89565b005b3480156101fd575f5ffd5b5061021860048036038101906102139190611a4d565b610bdf565b6040516102259190611b42565b60405180910390f35b348015610239575f5ffd5b50610254600480360381019061024f919061182b565b610c8b565b005b348015610261575f5ffd5b5061027c6004803603810190610277919061182b565b610de3565b005b348015610289575f5ffd5b506102926110a2565b60405161029f9190611a34565b60405180910390f35b3480156102b3575f5ffd5b506102ce60048036038101906102c99190611b62565b6110c6565b6040516102db9190611a34565b60405180910390f35b3480156102ef575f5ffd5b5061030a60048036038101906103059190611d18565b611119565b005b348015610317575f5ffd5b50610332600480360381019061032d9190611de5565b6112b4565b005b34801561033f575f5ffd5b5061035a60048036038101906103559190611e10565b611385565b604051610368929190611e6f565b60405180910390f35b34801561037c575f5ffd5b506103856113ca565b6040516103929190611e96565b60405180910390f35b3480156103a6575f5ffd5b506103c160048036038101906103bc919061182b565b6113d0565b6040516103d79a99989796959493929190611f82565b60405180910390f35b3480156103eb575f5ffd5b506103f4611539565b6040516104019190611a34565b60405180910390f35b348015610415575f5ffd5b50610430600480360381019061042b919061182b565b61155e565b005b805f81118015610443575060035481105b610482576040517f08c379a00000000000000000000000000000000000000000000000000000000081526004016104799061206d565b60405180910390fd5b5f60045f8481526020019081526020015f2090505f60028111156104a9576104a8611f0f565b5b8160080160019054906101000a900460ff1660028111156104cd576104cc611f0f565b5b1461050d576040517f08c379a0000000000000000000000000000000000000000000000000000000008152600401610504906120d5565b60405180910390fd5b8060070154421115610554576040517f08c379a000000000000000000000000000000000000000000000000000000000815260040161054b9061213d565b60405180910390fd5b8060030154341461059a576040517f08c379a0000000000000000000000000000000000000000000000000000000008152600401610591906121a5565b60405180910390fd5b806004015481600a015f3373ffffffffffffffffffffffffffffffffffffffff1673ffffffffffffffffffffffffffffffffffffffff1681526020019081526020015f20541061061f576040517f08c379a000000000000000000000000000000000000000000000000000000000815260040161061690612233565b60405180910390fd5b806008015f9054906101000a900460ff161561073f5760065f3373ffffffffffffffffffffffffffffffffffffffff1673ffffffffffffffffffffffffffffffffffffffff1681526020019081526020015f205f826004015481526020019081526020015f205f9054906101000a900460ff16156106d2576040517f08c379a00000000000000000000000000000000000000000000000000000000081526004016106c9906122c1565b60405180910390fd5b600160065f3373ffffffffffffffffffffffffffffffffffffffff1673ffffffffffffffffffffffffffffffffffffffff1681526020019081526020015f205f836004015481526020019081526020015f205f6101000a81548160ff0219169083151502179055506107dd565b60065f3373ffffffffffffffffffffffffffffffffffffffff1673ffffffffffffffffffffffffffffffffffffffff1681526020019081526020015f205f826004015481526020019081526020015f205f9054906101000a900460ff16156107dc576040517f08c379a00000000000000000000000000000000000000000000000000000000081526004016107d39061234f565b60405180910390fd5b5b806004015481600a015f3373ffffffffffffffffffffffffffffffffffffffff1673ffffffffffffffffffffffffffffffffffffffff1681526020019081526020015f20819055508060090133908060018154018082558091505060019003905f5260205f20015f9091909190916101000a81548173ffffffffffffffffffffffffffffffffffffffff021916908373ffffffffffffffffffffffffffffffffffffffff16021790555060055f3373ffffffffffffffffffffffffffffffffffffffff1673ffffffffffffffffffffffffffffffffffffffff1681526020019081526020015f205f826004015481526020019081526020015f20604051806040016040528085815260200142815250908060018154018082558091505060019003905f5260205f2090600202015f909190919091505f820151815f0155602082015181600101555050823373ffffffffffffffffffffffffffffffffffffffff167ff94991dcbea6e8ac439cbc93bd9c62a4d39f04e0ad656df9a703f13552c2787f83600401546040516109719190611e96565b60405180910390a3505050565b606060055f8473ffffffffffffffffffffffffffffffffffffffff1673ffffffffffffffffffffffffffffffffffffffff1681526020019081526020015f205f8381526020019081526020015f20805480602002602001604051908101604052809291908181526020015f905b82821015610a2e578382905f5260205f2090600202016040518060400160405290815f8201548152602001600182015481525050815260200190600101906109eb565b50505050905092915050565b6006602052815f5260405f20602052805f5260405f205f915091509054906101000a900460ff1681565b60015f9054906101000a900473ffffffffffffffffffffffffffffffffffffffff1681565b5f5f9054906101000a900473ffffffffffffffffffffffffffffffffffffffff1673ffffffffffffffffffffffffffffffffffffffff163373ffffffffffffffffffffffffffffffffffffffff1614610b17576040517f08c379a0000000000000000000000000000000000000000000000000000000008152600401610b0e906123b7565b60405180910390fd5b805f81118015610b28575060035481105b610b67576040517f08c379a0000000000000000000000000000000000000000000000000000000008152600401610b5e9061206d565b60405180910390fd5b5f60045f8481526020019081526020015f2060080160016101000a81548160ff02191690836002811115610b9e57610b9d611f0f565b5b0217905550817f4a5abdea00fd571953dae64435e298af2d1c3ddb3897c6e59d49c617b6bb36c55f604051610bd391906123d5565b60405180910390a25050565b606060075f8481526020019081526020015f205f8381526020019081526020015f20805480602002602001604051908101604052809291908181526020018280548015610c7e57602002820191905f5260205f20905b815f9054906101000a900473ffffffffffffffffffffffffffffffffffffffff1673ffffffffffffffffffffffffffffffffffffffff1681526020019060010190808311610c35575b5050505050905092915050565b5f5f9054906101000a900473ffffffffffffffffffffffffffffffffffffffff1673ffffffffffffffffffffffffffffffffffffffff163373ffffffffffffffffffffffffffffffffffffffff1614610d19576040517f08c379a0000000000000000000000000000000000000000000000000000000008152600401610d10906123b7565b60405180910390fd5b805f81118015610d2a575060035481105b610d69576040517f08c379a0000000000000000000000000000000000000000000000000000000008152600401610d609061206d565b60405180910390fd5b600160045f8481526020019081526020015f2060080160016101000a81548160ff02191690836002811115610da157610da0611f0f565b5b0217905550817f4a5abdea00fd571953dae64435e298af2d1c3ddb3897c6e59d49c617b6bb36c56001604051610dd791906123d5565b60405180910390a25050565b5f5f9054906101000a900473ffffffffffffffffffffffffffffffffffffffff1673ffffffffffffffffffffffffffffffffffffffff163373ffffffffffffffffffffffffffffffffffffffff1614610e71576040517f08c379a0000000000000000000000000000000000000000000000000000000008152600401610e68906123b7565b60405180910390fd5b805f81118015610e82575060035481105b610ec1576040517f08c379a0000000000000000000000000000000000000000000000000000000008152600401610eb89061206d565b60405180910390fd5b5f60045f8481526020019081526020015f209050600280811115610ee857610ee7611f0f565b5b8160080160019054906101000a900460ff166002811115610f0c57610f0b611f0f565b5b1480610f4d575060016002811115610f2757610f26611f0f565b5b8160080160019054906101000a900460ff166002811115610f4b57610f4a611f0f565b5b145b610f8c576040517f08c379a0000000000000000000000000000000000000000000000000000000008152600401610f839061245e565b60405180910390fd5b8060090160075f8581526020019081526020015f205f836004015481526020019081526020015f20908054610fc2929190611760565b50806009015f610fd291906117ae565b806004015481600a015f3373ffffffffffffffffffffffffffffffffffffffff1673ffffffffffffffffffffffffffffffffffffffff1681526020019081526020015f20819055506001816004015f82825461102e91906124a9565b925050819055505f8160080160016101000a81548160ff0219169083600281111561105c5761105b611f0f565b5b0217905550827f25b358bc4b896e9b21be6979c5b1093d8ad8585f9f10320b3e56135e6c1bc07882600401546040516110959190611e96565b60405180910390a2505050565b5f5f9054906101000a900473ffffffffffffffffffffffffffffffffffffffff1681565b6007602052825f5260405f20602052815f5260405f2081815481106110e9575f80fd5b905f5260205f20015f92509250509054906101000a900473ffffffffffffffffffffffffffffffffffffffff1681565b5f5f9054906101000a900473ffffffffffffffffffffffffffffffffffffffff1673ffffffffffffffffffffffffffffffffffffffff163373ffffffffffffffffffffffffffffffffffffffff16146111a7576040517f08c379a000000000000000000000000000000000000000000000000000000000815260040161119e906123b7565b60405180910390fd5b5f60045f60035481526020019081526020015f209050600354815f0181905550888160010190816111d891906126d9565b5087816002018190555086816003018190555085816004018190555084816005018190555083816006018190555082816007018190555081816008015f6101000a81548160ff0219169083151502179055505f8160080160016101000a81548160ff0219169083600281111561125157611250611f0f565b5b02179055506003547f961874f6cb039d159501db23f01ff4a09b8ac80d2bf3a8051044b5f7f49da95b8a8860405161128a9291906127a8565b60405180910390a260035f8154809291906112a4906127d6565b9190505550505050505050505050565b5f5f9054906101000a900473ffffffffffffffffffffffffffffffffffffffff1673ffffffffffffffffffffffffffffffffffffffff163373ffffffffffffffffffffffffffffffffffffffff1614611342576040517f08c379a0000000000000000000000000000000000000000000000000000000008152600401611339906123b7565b60405180910390fd5b8060025f6101000a81548173ffffffffffffffffffffffffffffffffffffffff021916908373ffffffffffffffffffffffffffffffffffffffff16021790555050565b6005602052825f5260405f20602052815f5260405f2081815481106113a8575f80fd5b905f5260205f2090600202015f925092505050805f0154908060010154905082565b60035481565b60605f5f5f5f5f5f5f5f5f8a5f811180156113ec575060035481105b61142b576040517f08c379a00000000000000000000000000000000000000000000000000000000081526004016114229061206d565b60405180910390fd5b5f60045f8e81526020019081526020015f20905080600101816002015482600301548360080160019054906101000a900460ff168460040154856005015486600601548760070154886008015f9054906101000a900460ff16896009018054905089805461149890612509565b80601f01602080910402602001604051908101604052809291908181526020018280546114c490612509565b801561150f5780601f106114e65761010080835404028352916020019161150f565b820191905f5260205f20905b8154815290600101906020018083116114f257829003601f168201915b505050505099509b509b509b509b509b509b509b509b509b509b5050509193959799509193959799565b60025f9054906101000a900473ffffffffffffffffffffffffffffffffffffffff1681565b805f8111801561156f575060035481105b6115ae576040517f08c379a00000000000000000000000000000000000000000000000000000000081526004016115a59061206d565b60405180910390fd5b60025f9054906101000a900473ffffffffffffffffffffffffffffffffffffffff1673ffffffffffffffffffffffffffffffffffffffff163373ffffffffffffffffffffffffffffffffffffffff161461163d576040517f08c379a000000000000000000000000000000000000000000000000000000000815260040161163490612867565b60405180910390fd5b5f60045f8481526020019081526020015f2090505f600281111561166457611663611f0f565b5b8160080160019054906101000a900460ff16600281111561168857611687611f0f565b5b146116c8576040517f08c379a00000000000000000000000000000000000000000000000000000000081526004016116bf906128cf565b60405180910390fd5b60028160080160016101000a81548160ff021916908360028111156116f0576116ef611f0f565b5b0217905550827f4a5abdea00fd571953dae64435e298af2d1c3ddb3897c6e59d49c617b6bb36c5600260405161172691906123d5565b60405180910390a2827f0df2c4775cef02ff47e4a6cd56d2753c6720bd071d12b2714d58b6ebcb4d14a560405160405180910390a2505050565b828054828255905f5260205f2090810192821561179d575f5260205f209182015b8281111561179c578254825591600101919060010190611781565b5b5090506117aa91906117cc565b5090565b5080545f8255905f5260205f20908101906117c991906117cc565b50565b5b808211156117e3575f815f9055506001016117cd565b5090565b5f604051905090565b5f5ffd5b5f5ffd5b5f819050919050565b61180a816117f8565b8114611814575f5ffd5b50565b5f8135905061182581611801565b92915050565b5f602082840312156118405761183f6117f0565b5b5f61184d84828501611817565b91505092915050565b5f73ffffffffffffffffffffffffffffffffffffffff82169050919050565b5f61187f82611856565b9050919050565b61188f81611875565b8114611899575f5ffd5b50565b5f813590506118aa81611886565b92915050565b5f5f604083850312156118c6576118c56117f0565b5b5f6118d38582860161189c565b92505060206118e485828601611817565b9150509250929050565b5f81519050919050565b5f82825260208201905092915050565b5f819050602082019050919050565b611920816117f8565b82525050565b604082015f82015161193a5f850182611917565b50602082015161194d6020850182611917565b50505050565b5f61195e8383611926565b60408301905092915050565b5f602082019050919050565b5f611980826118ee565b61198a81856118f8565b935061199583611908565b805f5b838110156119c55781516119ac8882611953565b97506119b78361196a565b925050600181019050611998565b5085935050505092915050565b5f6020820190508181035f8301526119ea8184611976565b905092915050565b5f8115159050919050565b611a06816119f2565b82525050565b5f602082019050611a1f5f8301846119fd565b92915050565b611a2e81611875565b82525050565b5f602082019050611a475f830184611a25565b92915050565b5f5f60408385031215611a6357611a626117f0565b5b5f611a7085828601611817565b9250506020611a8185828601611817565b9150509250929050565b5f81519050919050565b5f82825260208201905092915050565b5f819050602082019050919050565b611abd81611875565b82525050565b5f611ace8383611ab4565b60208301905092915050565b5f602082019050919050565b5f611af082611a8b565b611afa8185611a95565b9350611b0583611aa5565b805f5b83811015611b35578151611b1c8882611ac3565b9750611b2783611ada565b925050600181019050611b08565b5085935050505092915050565b5f6020820190508181035f830152611b5a8184611ae6565b905092915050565b5f5f5f60608486031215611b7957611b786117f0565b5b5f611b8686828701611817565b9350506020611b9786828701611817565b9250506040611ba886828701611817565b9150509250925092565b5f5ffd5b5f5ffd5b5f601f19601f8301169050919050565b7f4e487b71000000000000000000000000000000000000000000000000000000005f52604160045260245ffd5b611c0082611bba565b810181811067ffffffffffffffff82111715611c1f57611c1e611bca565b5b80604052505050565b5f611c316117e7565b9050611c3d8282611bf7565b919050565b5f67ffffffffffffffff821115611c5c57611c5b611bca565b5b611c6582611bba565b9050602081019050919050565b828183375f83830152505050565b5f611c92611c8d84611c42565b611c28565b905082815260208101848484011115611cae57611cad611bb6565b5b611cb9848285611c72565b509392505050565b5f82601f830112611cd557611cd4611bb2565b5b8135611ce5848260208601611c80565b91505092915050565b611cf7816119f2565b8114611d01575f5ffd5b50565b5f81359050611d1281611cee565b92915050565b5f5f5f5f5f5f5f5f610100898b031215611d3557611d346117f0565b5b5f89013567ffffffffffffffff811115611d5257611d516117f4565b5b611d5e8b828c01611cc1565b9850506020611d6f8b828c01611817565b9750506040611d808b828c01611817565b9650506060611d918b828c01611817565b9550506080611da28b828c01611817565b94505060a0611db38b828c01611817565b93505060c0611dc48b828c01611817565b92505060e0611dd58b828c01611d04565b9150509295985092959890939650565b5f60208284031215611dfa57611df96117f0565b5b5f611e078482850161189c565b91505092915050565b5f5f5f60608486031215611e2757611e266117f0565b5b5f611e348682870161189c565b9350506020611e4586828701611817565b9250506040611e5686828701611817565b9150509250925092565b611e69816117f8565b82525050565b5f604082019050611e825f830185611e60565b611e8f6020830184611e60565b9392505050565b5f602082019050611ea95f830184611e60565b92915050565b5f81519050919050565b5f82825260208201905092915050565b8281835e5f83830152505050565b5f611ee182611eaf565b611eeb8185611eb9565b9350611efb818560208601611ec9565b611f0481611bba565b840191505092915050565b7f4e487b71000000000000000000000000000000000000000000000000000000005f52602160045260245ffd5b60038110611f4d57611f4c611f0f565b5b50565b5f819050611f5d82611f3c565b919050565b5f611f6c82611f50565b9050919050565b611f7c81611f62565b82525050565b5f610140820190508181035f830152611f9b818d611ed7565b9050611faa602083018c611e60565b611fb7604083018b611e60565b611fc4606083018a611f73565b611fd16080830189611e60565b611fde60a0830188611e60565b611feb60c0830187611e60565b611ff860e0830186611e60565b6120066101008301856119fd565b612014610120830184611e60565b9b9a5050505050505050505050565b7f506f6c69637920646f6573206e6f7420657869737400000000000000000000005f82015250565b5f612057601583611eb9565b915061206282612023565b602082019050919050565b5f6020820190508181035f8301526120848161204b565b9050919050565b7f506f6c696379206973206e6f74206163746976650000000000000000000000005f82015250565b5f6120bf601483611eb9565b91506120ca8261208b565b602082019050919050565b5f6020820190508181035f8301526120ec816120b3565b9050919050565b7f537562736372697074696f6e20646561646c696e6520706173736564000000005f82015250565b5f612127601c83611eb9565b9150612132826120f3565b602082019050919050565b5f6020820190508181035f8301526121548161211b565b9050919050565b7f496e636f7272656374207072656d69756d20616d6f756e7400000000000000005f82015250565b5f61218f601883611eb9565b915061219a8261215b565b602082019050919050565b5f6020820190508181035f8301526121bc81612183565b9050919050565b7f416c7265616479207375627363726962656420746f207468697320706f6c69635f8201527f79207468697320736561736f6e00000000000000000000000000000000000000602082015250565b5f61221d602d83611eb9565b9150612228826121c3565b604082019050919050565b5f6020820190508181035f83015261224a81612211565b9050919050565b7f416c7265616479207375627363726962656420746f20616e6f7468657220706f5f8201527f6c696379207468697320736561736f6e00000000000000000000000000000000602082015250565b5f6122ab603083611eb9565b91506122b682612251565b604082019050919050565b5f6020820190508181035f8301526122d88161229f565b9050919050565b7f43616e6e6f742073756273637269626520746f207375622d706f6c69637920615f8201527f667465722066756c6c2d736561736f6e00000000000000000000000000000000602082015250565b5f612339603083611eb9565b9150612344826122df565b604082019050919050565b5f6020820190508181035f8301526123668161232d565b9050919050565b7f4f6e6c79206f776e65722063616e2063616c6c207468697300000000000000005f82015250565b5f6123a1601883611eb9565b91506123ac8261236d565b602082019050919050565b5f6020820190508181035f8301526123ce81612395565b9050919050565b5f6020820190506123e85f830184611f73565b92915050565b7f506f6c696379206d75737420626520636f6d706c65746564206f7220706175735f8201527f6564000000000000000000000000000000000000000000000000000000000000602082015250565b5f612448602283611eb9565b9150612453826123ee565b604082019050919050565b5f6020820190508181035f8301526124758161243c565b9050919050565b7f4e487b71000000000000000000000000000000000000000000000000000000005f52601160045260245ffd5b5f6124b3826117f8565b91506124be836117f8565b92508282019050808211156124d6576124d561247c565b5b92915050565b7f4e487b71000000000000000000000000000000000000000000000000000000005f52602260045260245ffd5b5f600282049050600182168061252057607f821691505b602082108103612533576125326124dc565b5b50919050565b5f819050815f5260205f209050919050565b5f6020601f8301049050919050565b5f82821b905092915050565b5f600883026125957fffffffffffffffffffffffffffffffffffffffffffffffffffffffffffffffff8261255a565b61259f868361255a565b95508019841693508086168417925050509392505050565b5f819050919050565b5f6125da6125d56125d0846117f8565b6125b7565b6117f8565b9050919050565b5f819050919050565b6125f3836125c0565b6126076125ff826125e1565b848454612566565b825550505050565b5f5f905090565b61261e61260f565b6126298184846125ea565b505050565b5b8181101561264c576126415f82612616565b60018101905061262f565b5050565b601f8211156126915761266281612539565b61266b8461254b565b8101602085101561267a578190505b61268e6126868561254b565b83018261262e565b50505b505050565b5f82821c905092915050565b5f6126b15f1984600802612696565b1980831691505092915050565b5f6126c983836126a2565b9150826002028217905092915050565b6126e282611eaf565b67ffffffffffffffff8111156126fb576126fa611bca565b5b6127058254612509565b612710828285612650565b5f60209050601f831160018114612741575f841561272f578287015190505b61273985826126be565b8655506127a0565b601f19841661274f86612539565b5f5b8281101561277657848901518255600182019150602085019450602081019050612751565b86831015612793578489015161278f601f8916826126a2565b8355505b6001600288020188555050505b505050505050565b5f6040820190508181035f8301526127c08185611ed7565b90506127cf6020830184611e60565b9392505050565b5f6127e0826117f8565b91507fffffffffffffffffffffffffffffffffffffffffffffffffffffffffffffffff82036128125761281161247c565b5b600182019050919050565b7f4f6e6c79205061796f7574456e67696e652063616e2063616c6c2074686973005f82015250565b5f612851601f83611eb9565b915061285c8261281d565b602082019050919050565b5f6020820190508181035f83015261287e81612845565b9050919050565b7f506f6c696379206e6f74206163746976650000000000000000000000000000005f82015250565b5f6128b9601183611eb9565b91506128c482612885565b602082019050919050565b5f6020820190508181035f8301526128e6816128ad565b905091905056fea264697066735822122099d1b37e7de3c533c53687425c0c41b6b2ee101a11672eac1c859a621dbaa27d64736f6c634300081e0033","linkReferences":{}},"methodIdentifiers":{"createPolicy(string,uint256,uint256,uint256,uint256,uint256,uint256,bool)":"a4a3edc2","farmerPolicies(address,uint256,uint256)":"c362d54c","farmerSeasonFullCover(address,uint256)":"449018a8","getFarmerPolicies(address,uint256)":"3ae18a5a","getHistoricalSubscribers(uint256,uint256)":"6f7657b1","getPolicyDetails(uint256)":"cc038010","historicalSubscribers(uint256,uint256,uint256)":"90c2fc06","markPolicyAsPayout(uint256)":"f7058144","nextPolicyId()":"cad0b8db","owner()":"8da5cb5b","pausePolicy(uint256)":"70b0d2f6","payoutEngine()":"e733fb3c","resetSeasonState(uint256)":"72936da6","resumePolicy(uint256)":"648315a6","setPayoutEngine(address)":"bef3d6f7","subscribe(uint256)":"0f574ba7","treasury()":"61d027b3"},"id":21}