{"abi":[{"type":"constructor","inputs":[{"name":"_treasury","type":"address","internalType":"address"}],"stateMutability":"nonpayable"},{"type":"receive","stateMutability":"payable"},{"type":"function","name":"createPolicy","inputs":[{"name":"_name","type":"string","internalType":"string"},{"name":"_threshold","type":"uint256","internalType":"uint256"},{"name":"_premium","type":"uint256","internalType":"uint256"},{"name":"_season","type":"uint256","internalType":"uint256"},{"name":"_seasonStart","type":"uint256","internalType":"uint256"},{"name":"_seasonEnd","type":"uint256","internalType":"uint256"},{"name":"_subscriptionDeadline","type":"uint256","internalType":"uint256"},{"name":"_coversFullSeason","type":"bool","internalType":"bool"}],"outputs":[],"stateMutability":"nonpayable"},{"type":"function","name":"farmerPolicies","inputs":[{"name":"","type":"address","internalType":"address"},{"name":"","type":"uint256","internalType":"uint256"},{"name":"","type":"uint256","internalType":"uint256"}],"outputs":[{"name":"policyId","type":"uint256","internalType":"uint256"},{"name":"timestamp","type":"uint256","internalType":"uint256"}],"stateMutability":"view"},{"type":"function","name":"farmerSeasonFullCover","inputs":[{"name":"","type":"address","internalType":"address"},{"name":"","type":"uint256","internalType":"uint256"}],"outputs":[{"name":"","type":"bool","internalType":"bool"}],"stateMutability":"view"},{"type":"function","name":"getFarmerPolicies","inputs":[{"name":"_farmer","type":"address","internalType":"address"},{"name":"_season","type":"uint256","internalType":"uint256"}],"outputs":[{"name":"","type":"tuple[]","internalType":"struct PolicyManager.Subscription[]","components":[{"name":"policyId","type":"uint256","internalType":"uint256"},{"name":"timestamp","type":"uint256","internalType":"uint256"}]}],"stateMutability":"view"},{"type":"function","name":"getHistoricalSubscribers","inputs":[{"name":"_policyId","type":"uint256","internalType":"uint256"},{"name":"_season","type":"uint256","internalType":"uint256"}],"outputs":[{"name":"","type":"address[]","internalType":"address[]"}],"stateMutability":"view"},{"type":"function","name":"getPolicyDetails","inputs":[{"name":"_policyId","type":"uint256","internalType":"uint256"}],"outputs":[{"name":"name","type":"string","internalType":"string"},{"name":"threshold","type":"uint256","internalType":"uint256"},{"name":"premium","type":"uint256","internalType":"uint256"},{"name":"status","type":"uint8","internalType":"enum PolicyManager.PolicyStatus"},{"name":"season","type":"uint256","internalType":"uint256"},{"name":"seasonStart","type":"uint256","internalType":"uint256"},{"name":"seasonEnd","type":"uint256","internalType":"uint256"},{"name":"subscriptionDeadline","type":"uint256","internalType":"uint256"},{"name":"coversFullSeason","type":"bool","internalType":"bool"},{"name":"subscriberCount","type":"uint256","internalType":"uint256"}],"stateMutability":"view"},{"type":"function","name":"hidePolicy","inputs":[{"name":"_policyId","type":"uint256","internalType":"uint256"}],"outputs":[],"stateMutability":"nonpayable"},{"type":"function","name":"historicalSubscribers","inputs":[{"name":"","type":"uint256","internalType":"uint256"},{"name":"","type":"uint256","internalType":"uint256"},{"name":"","type":"uint256","internalType":"uint256"}],"outputs":[{"name":"","type":"address","internalType":"address"}],"stateMutability":"view"},{"type":"function","name":"markPolicyAsPayout","inputs":[{"name":"_policyId","type":"uint256","internalType":"uint256"}],"outputs":[],"stateMutability":"nonpayable"},{"type":"function","name":"nextPolicyId","inputs":[],"outputs":[{"name":"","type":"uint256","internalType":"uint256"}],"stateMutability":"view"},{"type":"function","name":"owner","inputs":[],"outputs":[{"name":"","type":"address","internalType":"address"}],"stateMutability":"view"},{"type":"function","name":"pausePolicy","inputs":[{"name":"_policyId","type":"uint256","internalType":"uint256"}],"outputs":[],"stateMutability":"nonpayable"},{"type":"function","name":"payoutEngine","inputs":[],"outputs":[{"name":"","type":"address","internalType":"address"}],"stateMutability":"view"},{"type":"function","name":"resetSeasonState","inputs":[{"name":"_policyId","type":"uint256","internalType":"uint256"}],"outputs":[],"stateMutability":"nonpayable"},{"type":"function","name":"resumePolicy","inputs":[{"name":"_policyId","type":"uint256","internalType":"uint256"}],"outputs":[],"stateMutability":"nonpayable"},{"type":"function","name":"setPayoutEngine","inputs":[{"name":"_payoutEngine","type":"address","internalType":"address"}],"outputs":[],"stateMutability":"nonpayable"},{"type":"function","name":"subscribe","inputs":[{"name":"_policyId","type":"uint256","internalType":"uint256"}],"outputs":[],"stateMutability":"payable"},{"type":"function","name":"treasury","inputs":[],"outputs":[{"name":"","type":"address","internalType":"address"}],"stateMutability":"view"},{"type":"event","name":"PayoutTriggered","inputs":[{"name":"policyId","type":"uint256","indexed":true,"internalType":"uint256"}],"anonymous":false},{"type":"event","name":"PolicyCreated","inputs":[{"name":"id","type":"uint256","indexed":true,"internalType":"uint256"},{"name":"name","type":"string","indexed":false,"internalType":"string"},{"name":"season","type":"uint256","indexed":false,"internalType":"uint256"}],"anonymous":false},{"type":"event","name":"PolicyStatusChanged","inputs":[{"name":"policyId","type":"uint256","indexed":true,"internalType":"uint256"},{"name":"newStatus","type":"uint8","indexed":false,"internalType":"enum PolicyManager.PolicyStatus"}],"anonymous":false},{"type":"event","name":"SeasonReset","inputs":[{"name":"policyId","type":"uint256","indexed":true,"internalType":"uint256"},{"name":"newSeason","type":"uint256","indexed":false,"internalType":"uint256"}],"anonymous":false},{"type":"event","name":"Subscribed","inputs":[{"name":"farmer","type":"address","indexed":true,"internalType":"address"},{"name":"policyId","type":"uint256","indexed":true,"internalType":"uint256"},{"name":"season","type":"uint256","indexed":false,"internalType":"uint256"}],"anonymous":false}],"bytecode":{"object":"0x60806040526001600355348015610014575f5ffd5b50604051612c89380380612c8983398181016040528101906100369190610119565b335f5f6101000a81548173ffffffffffffffffffffffffffffffffffffffff021916908373ffffffffffffffffffffffffffffffffffffffff1602179055508060015f6101000a81548173ffffffffffffffffffffffffffffffffffffffff021916908373ffffffffffffffffffffffffffffffffffffffff16021790555050610144565b5f5ffd5b5f73ffffffffffffffffffffffffffffffffffffffff82169050919050565b5f6100e8826100bf565b9050919050565b6100f8816100de565b8114610102575f5ffd5b50565b5f81519050610113816100ef565b92915050565b5f6020828403121561012e5761012d6100bb565b5b5f61013b84828501610105565b91505092915050565b612b38806101515f395ff3fe60806040526004361061010c575f3560e01c806390c2fc0611610094578063cad0b8db11610063578063cad0b8db1461037c578063cc038010146103a6578063e733fb3c146103eb578063f705814414610415578063fdb2e10d1461043d57610113565b806390c2fc06146102b3578063a4a3edc2146102ef578063bef3d6f714610317578063c362d54c1461033f57610113565b8063648315a6116100db578063648315a6146101d55780636f7657b1146101fd57806370b0d2f61461023957806372936da6146102615780638da5cb5b1461028957610113565b80630f574ba7146101175780633ae18a5a14610133578063449018a81461016f57806361d027b3146101ab57610113565b3661011357005b5f5ffd5b610131600480360381019061012c9190611a40565b610465565b005b34801561013e575f5ffd5b5061015960048036038101906101549190611ac5565b610a3a565b6040516101669190611be7565b60405180910390f35b34801561017a575f5ffd5b5061019560048036038101906101909190611ac5565b610af6565b6040516101a29190611c21565b60405180910390f35b3480156101b6575f5ffd5b506101bf610b20565b6040516101cc9190611c49565b60405180910390f35b3480156101e0575f5ffd5b506101fb60048036038101906101f69190611a40565b610b45565b005b348015610208575f5ffd5b50610223600480360381019061021e9190611c62565b610c9b565b6040516102309190611d57565b60405180910390f35b348015610244575f5ffd5b5061025f600480360381019061025a9190611a40565b610d47565b005b34801561026c575f5ffd5b5061028760048036038101906102829190611a40565b610e9f565b005b348015610294575f5ffd5b5061029d61115f565b6040516102aa9190611c49565b60405180910390f35b3480156102be575f5ffd5b506102d960048036038101906102d49190611d77565b611183565b6040516102e69190611c49565b60405180910390f35b3480156102fa575f5ffd5b5061031560048036038101906103109190611f2d565b6111d6565b005b348015610322575f5ffd5b5061033d60048036038101906103389190611ffa565b611371565b005b34801561034a575f5ffd5b5061036560048036038101906103609190612025565b611442565b604051610373929190612084565b60405180910390f35b348015610387575f5ffd5b50610390611487565b60405161039d91906120ab565b60405180910390f35b3480156103b1575f5ffd5b506103cc60048036038101906103c79190611a40565b61148d565b6040516103e29a99989796959493929190612197565b60405180910390f35b3480156103f6575f5ffd5b506103ff6115f6565b60405161040c9190611c49565b60405180910390f35b348015610420575f5ffd5b5061043b60048036038101906104369190611a40565b61161b565b005b348015610448575f5ffd5b50610463600480360381019061045e9190611a40565b61181d565b005b805f81118015610476575060035481105b6104b5576040517f08c379a00000000000000000000000000000000000000000000000000000000081526004016104ac90612282565b60405180910390fd5b5f60045f8481526020019081526020015f2090505f60038111156104dc576104db612124565b5b8160080160019054906101000a900460ff166003811115610500576104ff612124565b5b14610540576040517f08c379a0000000000000000000000000000000000000000000000000000000008152600401610537906122ea565b60405180910390fd5b8060070154421115610587576040517f08c379a000000000000000000000000000000000000000000000000000000000815260040161057e90612352565b60405180910390fd5b806003015434146105cd576040517f08c379a00000000000000000000000000000000000000000000000000000000081526004016105c4906123ba565b60405180910390fd5b806004015481600a015f3373ffffffffffffffffffffffffffffffffffffffff1673ffffffffffffffffffffffffffffffffffffffff1681526020019081526020015f205410610652576040517f08c379a000000000000000000000000000000000000000000000000000000000815260040161064990612448565b60405180910390fd5b806008015f9054906101000a900460ff16156107725760065f3373ffffffffffffffffffffffffffffffffffffffff1673ffffffffffffffffffffffffffffffffffffffff1681526020019081526020015f205f826004015481526020019081526020015f205f9054906101000a900460ff1615610705576040517f08c379a00000000000000000000000000000000000000000000000000000000081526004016106fc906124d6565b60405180910390fd5b600160065f3373ffffffffffffffffffffffffffffffffffffffff1673ffffffffffffffffffffffffffffffffffffffff1681526020019081526020015f205f836004015481526020019081526020015f205f6101000a81548160ff021916908315150217905550610810565b60065f3373ffffffffffffffffffffffffffffffffffffffff1673ffffffffffffffffffffffffffffffffffffffff1681526020019081526020015f205f826004015481526020019081526020015f205f9054906101000a900460ff161561080f576040517f08c379a000000000000000000000000000000000000000000000000000000000815260040161080690612564565b60405180910390fd5b5b806004015481600a015f3373ffffffffffffffffffffffffffffffffffffffff1673ffffffffffffffffffffffffffffffffffffffff1681526020019081526020015f20819055508060090133908060018154018082558091505060019003905f5260205f20015f9091909190916101000a81548173ffffffffffffffffffffffffffffffffffffffff021916908373ffffffffffffffffffffffffffffffffffffffff16021790555060055f3373ffffffffffffffffffffffffffffffffffffffff1673ffffffffffffffffffffffffffffffffffffffff1681526020019081526020015f205f826004015481526020019081526020015f20604051806040016040528085815260200142815250908060018154018082558091505060019003905f5260205f2090600202015f909190919091505f820151815f015560208201518160010155505060015f9054906101000a900473ffffffffffffffffffffffffffffffffffffffff1673ffffffffffffffffffffffffffffffffffffffff1663f340fa0134336040518363ffffffff1660e01b81526004016109b49190611c49565b5f604051808303818588803b1580156109cb575f5ffd5b505af11580156109dd573d5f5f3e3d5ffd5b5050505050823373ffffffffffffffffffffffffffffffffffffffff167ff94991dcbea6e8ac439cbc93bd9c62a4d39f04e0ad656df9a703f13552c2787f8360040154604051610a2d91906120ab565b60405180910390a3505050565b606060055f8473ffffffffffffffffffffffffffffffffffffffff1673ffffffffffffffffffffffffffffffffffffffff1681526020019081526020015f205f8381526020019081526020015f20805480602002602001604051908101604052809291908181526020015f905b82821015610aea578382905f5260205f2090600202016040518060400160405290815f820154815260200160018201548152505081526020019060010190610aa7565b50505050905092915050565b6006602052815f5260405f20602052805f5260405f205f915091509054906101000a900460ff1681565b60015f9054906101000a900473ffffffffffffffffffffffffffffffffffffffff1681565b5f5f9054906101000a900473ffffffffffffffffffffffffffffffffffffffff1673ffffffffffffffffffffffffffffffffffffffff163373ffffffffffffffffffffffffffffffffffffffff1614610bd3576040517f08c379a0000000000000000000000000000000000000000000000000000000008152600401610bca906125cc565b60405180910390fd5b805f81118015610be4575060035481105b610c23576040517f08c379a0000000000000000000000000000000000000000000000000000000008152600401610c1a90612282565b60405180910390fd5b5f60045f8481526020019081526020015f2060080160016101000a81548160ff02191690836003811115610c5a57610c59612124565b5b0217905550817f4a5abdea00fd571953dae64435e298af2d1c3ddb3897c6e59d49c617b6bb36c55f604051610c8f91906125ea565b60405180910390a25050565b606060075f8481526020019081526020015f205f8381526020019081526020015f20805480602002602001604051908101604052809291908181526020018280548015610d3a57602002820191905f5260205f20905b815f9054906101000a900473ffffffffffffffffffffffffffffffffffffffff1673ffffffffffffffffffffffffffffffffffffffff1681526020019060010190808311610cf1575b5050505050905092915050565b5f5f9054906101000a900473ffffffffffffffffffffffffffffffffffffffff1673ffffffffffffffffffffffffffffffffffffffff163373ffffffffffffffffffffffffffffffffffffffff1614610dd5576040517f08c379a0000000000000000000000000000000000000000000000000000000008152600401610dcc906125cc565b60405180910390fd5b805f81118015610de6575060035481105b610e25576040517f08c379a0000000000000000000000000000000000000000000000000000000008152600401610e1c90612282565b60405180910390fd5b600160045f8481526020019081526020015f2060080160016101000a81548160ff02191690836003811115610e5d57610e5c612124565b5b0217905550817f4a5abdea00fd571953dae64435e298af2d1c3ddb3897c6e59d49c617b6bb36c56001604051610e9391906125ea565b60405180910390a25050565b5f5f9054906101000a900473ffffffffffffffffffffffffffffffffffffffff1673ffffffffffffffffffffffffffffffffffffffff163373ffffffffffffffffffffffffffffffffffffffff1614610f2d576040517f08c379a0000000000000000000000000000000000000000000000000000000008152600401610f24906125cc565b60405180910390fd5b805f81118015610f3e575060035481105b610f7d576040517f08c379a0000000000000000000000000000000000000000000000000000000008152600401610f7490612282565b60405180910390fd5b5f60045f8481526020019081526020015f20905060026003811115610fa557610fa4612124565b5b8160080160019054906101000a900460ff166003811115610fc957610fc8612124565b5b148061100a575060016003811115610fe457610fe3612124565b5b8160080160019054906101000a900460ff16600381111561100857611007612124565b5b145b611049576040517f08c379a000000000000000000000000000000000000000000000000000000000815260040161104090612673565b60405180910390fd5b8060090160075f8581526020019081526020015f205f836004015481526020019081526020015f2090805461107f929190611975565b50806009015f61108f91906119c3565b806004015481600a015f3373ffffffffffffffffffffffffffffffffffffffff1673ffffffffffffffffffffffffffffffffffffffff1681526020019081526020015f20819055506001816004015f8282546110eb91906126be565b925050819055505f8160080160016101000a81548160ff0219169083600381111561111957611118612124565b5b0217905550827f25b358bc4b896e9b21be6979c5b1093d8ad8585f9f10320b3e56135e6c1bc078826004015460405161115291906120ab565b60405180910390a2505050565b5f5f9054906101000a900473ffffffffffffffffffffffffffffffffffffffff1681565b6007602052825f5260405f20602052815f5260405f2081815481106111a6575f80fd5b905f5260205f20015f92509250509054906101000a900473ffffffffffffffffffffffffffffffffffffffff1681565b5f5f9054906101000a900473ffffffffffffffffffffffffffffffffffffffff1673ffffffffffffffffffffffffffffffffffffffff163373ffffffffffffffffffffffffffffffffffffffff1614611264576040517f08c379a000000000000000000000000000000000000000000000000000000000815260040161125b906125cc565b60405180910390fd5b5f60045f60035481526020019081526020015f209050600354815f01819055508881600101908161129591906128ee565b5087816002018190555086816003018190555085816004018190555084816005018190555083816006018190555082816007018190555081816008015f6101000a81548160ff0219169083151502179055505f8160080160016101000a81548160ff0219169083600381111561130e5761130d612124565b5b02179055506003547f961874f6cb039d159501db23f01ff4a09b8ac80d2bf3a8051044b5f7f49da95b8a886040516113479291906129bd565b60405180910390a260035f815480929190611361906129eb565b9190505550505050505050505050565b5f5f9054906101000a900473ffffffffffffffffffffffffffffffffffffffff1673ffffffffffffffffffffffffffffffffffffffff163373ffffffffffffffffffffffffffffffffffffffff16146113ff576040517f08c379a00000000000000000000000000000000000000000000000000000000081526004016113f6906125cc565b60405180910390fd5b8060025f6101000a81548173ffffffffffffffffffffffffffffffffffffffff021916908373ffffffffffffffffffffffffffffffffffffffff16021790555050565b6005602052825f5260405f20602052815f5260405f208181548110611465575f80fd5b905f5260205f2090600202015f925092505050805f0154908060010154905082565b60035481565b60605f5f5f5f5f5f5f5f5f8a5f811180156114a9575060035481105b6114e8576040517f08c379a00000000000000000000000000000000000000000000000000000000081526004016114df90612282565b60405180910390fd5b5f60045f8e81526020019081526020015f20905080600101816002015482600301548360080160019054906101000a900460ff168460040154856005015486600601548760070154886008015f9054906101000a900460ff1689600901805490508980546115559061271e565b80601f01602080910402602001604051908101604052809291908181526020018280546115819061271e565b80156115cc5780601f106115a3576101008083540402835291602001916115cc565b820191905f5260205f20905b8154815290600101906020018083116115af57829003601f168201915b505050505099509b509b509b509b509b509b509b509b509b509b5050509193959799509193959799565b60025f9054906101000a900473ffffffffffffffffffffffffffffffffffffffff1681565b805f8111801561162c575060035481105b61166b576040517f08c379a000000000000000000000000000000000000000000000000000000000815260040161166290612282565b60405180910390fd5b60025f9054906101000a900473ffffffffffffffffffffffffffffffffffffffff1673ffffffffffffffffffffffffffffffffffffffff163373ffffffffffffffffffffffffffffffffffffffff16146116fa576040517f08c379a00000000000000000000000000000000000000000000000000000000081526004016116f190612a7c565b60405180910390fd5b5f60045f8481526020019081526020015f2090505f600381111561172157611720612124565b5b8160080160019054906101000a900460ff16600381111561174557611744612124565b5b14611785576040517f08c379a000000000000000000000000000000000000000000000000000000000815260040161177c90612ae4565b60405180910390fd5b60028160080160016101000a81548160ff021916908360038111156117ad576117ac612124565b5b0217905550827f4a5abdea00fd571953dae64435e298af2d1c3ddb3897c6e59d49c617b6bb36c560026040516117e391906125ea565b60405180910390a2827f0df2c4775cef02ff47e4a6cd56d2753c6720bd071d12b2714d58b6ebcb4d14a560405160405180910390a2505050565b5f5f9054906101000a900473ffffffffffffffffffffffffffffffffffffffff1673ffffffffffffffffffffffffffffffffffffffff163373ffffffffffffffffffffffffffffffffffffffff16146118ab576040517f08c379a00000000000000000000000000000000000000000000000000000000081526004016118a2906125cc565b60405180910390fd5b805f811180156118bc575060035481105b6118fb576040517f08c379a00000000000000000000000000000000000000000000000000000000081526004016118f290612282565b60405180910390fd5b600360045f8481526020019081526020015f2060080160016101000a81548160ff0219169083600381111561193357611932612124565b5b0217905550817f4a5abdea00fd571953dae64435e298af2d1c3ddb3897c6e59d49c617b6bb36c5600360405161196991906125ea565b60405180910390a25050565b828054828255905f5260205f209081019282156119b2575f5260205f209182015b828111156119b1578254825591600101919060010190611996565b5b5090506119bf91906119e1565b5090565b5080545f8255905f5260205f20908101906119de91906119e1565b50565b5b808211156119f8575f815f9055506001016119e2565b5090565b5f604051905090565b5f5ffd5b5f5ffd5b5f819050919050565b611a1f81611a0d565b8114611a29575f5ffd5b50565b5f81359050611a3a81611a16565b92915050565b5f60208284031215611a5557611a54611a05565b5b5f611a6284828501611a2c565b91505092915050565b5f73ffffffffffffffffffffffffffffffffffffffff82169050919050565b5f611a9482611a6b565b9050919050565b611aa481611a8a565b8114611aae575f5ffd5b50565b5f81359050611abf81611a9b565b92915050565b5f5f60408385031215611adb57611ada611a05565b5b5f611ae885828601611ab1565b9250506020611af985828601611a2c565b9150509250929050565b5f81519050919050565b5f82825260208201905092915050565b5f819050602082019050919050565b611b3581611a0d565b82525050565b604082015f820151611b4f5f850182611b2c565b506020820151611b626020850182611b2c565b50505050565b5f611b738383611b3b565b60408301905092915050565b5f602082019050919050565b5f611b9582611b03565b611b9f8185611b0d565b9350611baa83611b1d565b805f5b83811015611bda578151611bc18882611b68565b9750611bcc83611b7f565b925050600181019050611bad565b5085935050505092915050565b5f6020820190508181035f830152611bff8184611b8b565b905092915050565b5f8115159050919050565b611c1b81611c07565b82525050565b5f602082019050611c345f830184611c12565b92915050565b611c4381611a8a565b82525050565b5f602082019050611c5c5f830184611c3a565b92915050565b5f5f60408385031215611c7857611c77611a05565b5b5f611c8585828601611a2c565b9250506020611c9685828601611a2c565b9150509250929050565b5f81519050919050565b5f82825260208201905092915050565b5f819050602082019050919050565b611cd281611a8a565b82525050565b5f611ce38383611cc9565b60208301905092915050565b5f602082019050919050565b5f611d0582611ca0565b611d0f8185611caa565b9350611d1a83611cba565b805f5b83811015611d4a578151611d318882611cd8565b9750611d3c83611cef565b925050600181019050611d1d565b5085935050505092915050565b5f6020820190508181035f830152611d6f8184611cfb565b905092915050565b5f5f5f60608486031215611d8e57611d8d611a05565b5b5f611d9b86828701611a2c565b9350506020611dac86828701611a2c565b9250506040611dbd86828701611a2c565b9150509250925092565b5f5ffd5b5f5ffd5b5f601f19601f8301169050919050565b7f4e487b71000000000000000000000000000000000000000000000000000000005f52604160045260245ffd5b611e1582611dcf565b810181811067ffffffffffffffff82111715611e3457611e33611ddf565b5b80604052505050565b5f611e466119fc565b9050611e528282611e0c565b919050565b5f67ffffffffffffffff821115611e7157611e70611ddf565b5b611e7a82611dcf565b9050602081019050919050565b828183375f83830152505050565b5f611ea7611ea284611e57565b611e3d565b905082815260208101848484011115611ec357611ec2611dcb565b5b611ece848285611e87565b509392505050565b5f82601f830112611eea57611ee9611dc7565b5b8135611efa848260208601611e95565b91505092915050565b611f0c81611c07565b8114611f16575f5ffd5b50565b5f81359050611f2781611f03565b92915050565b5f5f5f5f5f5f5f5f610100898b031215611f4a57611f49611a05565b5b5f89013567ffffffffffffffff811115611f6757611f66611a09565b5b611f738b828c01611ed6565b9850506020611f848b828c01611a2c565b9750506040611f958b828c01611a2c565b9650506060611fa68b828c01611a2c565b9550506080611fb78b828c01611a2c565b94505060a0611fc88b828c01611a2c565b93505060c0611fd98b828c01611a2c565b92505060e0611fea8b828c01611f19565b9150509295985092959890939650565b5f6020828403121561200f5761200e611a05565b5b5f61201c84828501611ab1565b91505092915050565b5f5f5f6060848603121561203c5761203b611a05565b5b5f61204986828701611ab1565b935050602061205a86828701611a2c565b925050604061206b86828701611a2c565b9150509250925092565b61207e81611a0d565b82525050565b5f6040820190506120975f830185612075565b6120a46020830184612075565b9392505050565b5f6020820190506120be5f830184612075565b92915050565b5f81519050919050565b5f82825260208201905092915050565b8281835e5f83830152505050565b5f6120f6826120c4565b61210081856120ce565b93506121108185602086016120de565b61211981611dcf565b840191505092915050565b7f4e487b71000000000000000000000000000000000000000000000000000000005f52602160045260245ffd5b6004811061216257612161612124565b5b50565b5f81905061217282612151565b919050565b5f61218182612165565b9050919050565b61219181612177565b82525050565b5f610140820190508181035f8301526121b0818d6120ec565b90506121bf602083018c612075565b6121cc604083018b612075565b6121d9606083018a612188565b6121e66080830189612075565b6121f360a0830188612075565b61220060c0830187612075565b61220d60e0830186612075565b61221b610100830185611c12565b612229610120830184612075565b9b9a5050505050505050505050565b7f506f6c69637920646f6573206e6f7420657869737400000000000000000000005f82015250565b5f61226c6015836120ce565b915061227782612238565b602082019050919050565b5f6020820190508181035f83015261229981612260565b9050919050565b7f506f6c696379206973206e6f74206163746976650000000000000000000000005f82015250565b5f6122d46014836120ce565b91506122df826122a0565b602082019050919050565b5f6020820190508181035f830152612301816122c8565b9050919050565b7f537562736372697074696f6e20646561646c696e6520706173736564000000005f82015250565b5f61233c601c836120ce565b915061234782612308565b602082019050919050565b5f6020820190508181035f83015261236981612330565b9050919050565b7f496e636f7272656374207072656d69756d20616d6f756e7400000000000000005f82015250565b5f6123a46018836120ce565b91506123af82612370565b602082019050919050565b5f6020820190508181035f8301526123d181612398565b9050919050565b7f416c7265616479207375627363726962656420746f207468697320706f6c69635f8201527f79207468697320736561736f6e00000000000000000000000000000000000000602082015250565b5f612432602d836120ce565b915061243d826123d8565b604082019050919050565b5f6020820190508181035f83015261245f81612426565b9050919050565b7f416c7265616479207375627363726962656420746f20616e6f7468657220706f5f8201527f6c696379207468697320736561736f6e00000000000000000000000000000000602082015250565b5f6124c06030836120ce565b91506124cb82612466565b604082019050919050565b5f6020820190508181035f8301526124ed816124b4565b9050919050565b7f43616e6e6f742073756273637269626520746f207375622d706f6c69637920615f8201527f667465722066756c6c2d736561736f6e00000000000000000000000000000000602082015250565b5f61254e6030836120ce565b9150612559826124f4565b604082019050919050565b5f6020820190508181035f83015261257b81612542565b9050919050565b7f4f6e6c79206f776e65722063616e2063616c6c207468697300000000000000005f82015250565b5f6125b66018836120ce565b91506125c182612582565b602082019050919050565b5f6020820190508181035f8301526125e3816125aa565b9050919050565b5f6020820190506125fd5f830184612188565b92915050565b7f506f6c696379206d75737420626520636f6d706c65746564206f7220706175735f8201527f6564000000000000000000000000000000000000000000000000000000000000602082015250565b5f61265d6022836120ce565b915061266882612603565b604082019050919050565b5f6020820190508181035f83015261268a81612651565b9050919050565b7f4e487b71000000000000000000000000000000000000000000000000000000005f52601160045260245ffd5b5f6126c882611a0d565b91506126d383611a0d565b92508282019050808211156126eb576126ea612691565b5b92915050565b7f4e487b71000000000000000000000000000000000000000000000000000000005f52602260045260245ffd5b5f600282049050600182168061273557607f821691505b602082108103612748576127476126f1565b5b50919050565b5f819050815f5260205f209050919050565b5f6020601f8301049050919050565b5f82821b905092915050565b5f600883026127aa7fffffffffffffffffffffffffffffffffffffffffffffffffffffffffffffffff8261276f565b6127b4868361276f565b95508019841693508086168417925050509392505050565b5f819050919050565b5f6127ef6127ea6127e584611a0d565b6127cc565b611a0d565b9050919050565b5f819050919050565b612808836127d5565b61281c612814826127f6565b84845461277b565b825550505050565b5f5f905090565b612833612824565b61283e8184846127ff565b505050565b5b81811015612861576128565f8261282b565b600181019050612844565b5050565b601f8211156128a6576128778161274e565b61288084612760565b8101602085101561288f578190505b6128a361289b85612760565b830182612843565b50505b505050565b5f82821c905092915050565b5f6128c65f19846008026128ab565b1980831691505092915050565b5f6128de83836128b7565b9150826002028217905092915050565b6128f7826120c4565b67ffffffffffffffff8111156129105761290f611ddf565b5b61291a825461271e565b612925828285612865565b5f60209050601f831160018114612956575f8415612944578287015190505b61294e85826128d3565b8655506129b5565b601f1984166129648661274e565b5f5b8281101561298b57848901518255600182019150602085019450602081019050612966565b868310156129a857848901516129a4601f8916826128b7565b8355505b6001600288020188555050505b505050505050565b5f6040820190508181035f8301526129d581856120ec565b90506129e46020830184612075565b9392505050565b5f6129f582611a0d565b91507fffffffffffffffffffffffffffffffffffffffffffffffffffffffffffffffff8203612a2757612a26612691565b5b600182019050919050565b7f4f6e6c79205061796f7574456e67696e652063616e2063616c6c2074686973005f82015250565b5f612a66601f836120ce565b9150612a7182612a32565b602082019050919050565b5f6020820190508181035f830152612a9381612a5a565b9050919050565b7f506f6c696379206e6f74206163746976650000000000000000000000000000005f82015250565b5f612ace6011836120ce565b9150612ad982612a9a565b602082019050919050565b5f6020820190508181035f830152612afb81612ac2565b905091905056fea2646970667358221220e748db06a78f7f54a652d5de7e892d1d3cbdcf01497782960f3072d0e55f10fc64736f6c634300081e0033","linkReferences":{}},"methodIdentifiers":{"createPolicy(string,uint256,uint256,uint256,uint256,uint256,uint256,bool)":"a4a3edc2","farmerPolicies(address,uint256,uint256)":"c362d54c","farmerSeasonFullCover(address,uint256)":"449018a8","getFarmerPolicies(address,uint256)":"3ae18a5a","getHistoricalSubscribers(uint256,uint256)":"6f7657b1","getPolicyDetails(uint256)":"cc038010","hidePolicy(uint256)":"fdb2e10d","historicalSubscribers(uint256,uint256,uint256)":"90c2fc06","markPolicyAsPayout(uint256)":"f7058144","nextPolicyId()":"cad0b8db","owner()":"8da5cb5b","pausePolicy(uint256)":"70b0d2f6","payoutEngine()":"e733fb3c","resetSeasonState(uint256)":"72936da6","resumePolicy(uint256)":"648315a6","setPayoutEngine(address)":"bef3d6f7","subscribe(uint256)":"0f574ba7","treasury()":"61d027b3"},"id":24}