{"abi":[{"type":"constructor","inputs":[{"name":"_treasury","type":"address","internalType":"address"}],"stateMutability":"nonpayable"},{"type":"receive","stateMutability":"payable"},{"type":"function","name":"createPolicy","inputs":[{"name":"_name","type":"string","internalType":"string"},{"name":"_threshold","type":"uint256","internalType":"uint256"},{"name":"_premium","type":"uint256","internalType":"uint256"},{"name":"_season","type":"uint256","internalType":"uint256"},{"name":"_seasonStart","type":"uint256","internalType":"uint256"},{"name":"_seasonEnd","type":"uint256","internalType":"uint256"},{"name":"_subscriptionDeadline","type":"uint256","internalType":"uint256"},{"name":"_coversFullSeason","type":"bool","internalType":"bool"}],"outputs":[],"stateMutability":"nonpayable"},{"type":"function","name":"farmerPolicies","inputs":[{"name":"","type":"address","internalType":"address"},{"name":"","type":"uint256","internalType":"uint256"},{"name":"","type":"uint256","internalType":"uint256"}],"outputs":[{"name":"policyId","type":"uint256","internalType":"uint256"},{"name":"timestamp","type":"uint256","internalType":"uint256"}],"stateMutability":"view"},{"type":"function","name":"farmerSeasonFullCover","inputs":[{"name":"","type":"address","internalType":"address"},{"name":"","type":"uint256","internalType":"uint256"}],"outputs":[{"name":"","type":"bool","internalType":"bool"}],"stateMutability":"view"},{"type":"function","name":"getFarmerPolicies","inputs":[{"name":"_farmer","type":"address","internalType":"address"},{"name":"_season","type":"uint256","internalType":"uint256"}],"outputs":[{"name":"","type":"tuple[]","internalType":"struct PolicyManager.Subscription[]","components":[{"name":"policyId","type":"uint256","internalType":"uint256"},{"name":"timestamp","type":"uint256","internalType":"uint256"}]}],"stateMutability":"view"},{"type":"function","name":"getHistoricalSubscribers","inputs":[{"name":"_policyId","type":"uint256","internalType":"uint256"},{"name":"_season","type":"uint256","internalType":"uint256"}],"outputs":[{"name":"","type":"address[]","internalType":"address[]"}],"stateMutability":"view"},{"type":"function","name":"getPolicyDetails","inputs":[{"name":"_policyId","type":"uint256","internalType":"uint256"}],"outputs":[{"name":"name","type":"string","internalType":"string"},{"name":"threshold","type":"uint256","internalType":"uint256"},{"name":"premium","type":"uint256","internalType":"uint256"},{"name":"status","type":"uint8","internalType":"enum PolicyManager.PolicyStatus"},{"name":"season","type":"uint256","internalType":"uint256"},{"name":"seasonStart","type":"uint256","internalType":"uint256"},{"name":"seasonEnd","type":"uint256","internalType":"uint256"},{"name":"subscriptionDeadline","type":"uint256","internalType":"uint256"},{"name":"coversFullSeason","type":"bool","internalType":"bool"},{"name":"subscriberCount","type":"uint256","internalType":"uint256"}],"stateMutability":"view"},{"type":"function","name":"hidePolicy","inputs":[{"name":"_policyId","type":"uint256","internalType":"uint256"}],"outputs":[],"stateMutability":"nonpayable"},{"type":"function","name":"historicalSubscribers","inputs":[{"name":"","type":"uint256","internalType":"uint256"},{"name":"","type":"uint256","internalType":"uint256"},{"name":"","type":"uint256","internalType":"uint256"}],"outputs":[{"name":"","type":"address","internalType":"address"}],"stateMutability":"view"},{"type":"function","name":"markPolicyAsPayout","inputs":[{"name":"_policyId","type":"uint256","internalType":"uint256"}],"outputs":[],"stateMutability":"nonpayable"},{"type":"function","name":"nextPolicyId","inputs":[],"outputs":[{"name":"","type":"uint256","internalType":"uint256"}],"stateMutability":"view"},{"type":"function","name":"owner","inputs":[],"outputs":[{"name":"","type":"address","internalType":"address"}],"stateMutability":"view"},{"type":"function","name":"pausePolicy","inputs":[{"name":"_policyId","type":"uint256","internalType":"uint256"}],"outputs":[],"stateMutability":"nonpayable"},{"type":"function","name":"payoutEngine","inputs":[],"outputs":[{"name":"","type":"address","internalType":"address"}],"stateMutability":"view"},{"type":"function","name":"resetSeasonState","inputs":[{"name":"_policyId","type":"uint256","internalType":"uint256"}],"outputs":[],"stateMutability":"nonpayable"},{"type":"function","name":"resumePolicy","inputs":[{"name":"_policyId","type":"uint256","internalType":"uint256"}],"outputs":[],"stateMutability":"nonpayable"},{"type":"function","name":"setPayoutEngine","inputs":[{"name":"_payoutEngine","type":"address","internalType":"address"}],"outputs":[],"stateMutability":"nonpayable"},{"type":"function","name":"subscribe","inputs":[{"name":"_policyId","type":"uint256","internalType":"uint256"}],"outputs":[],"stateMutability":"payable"},{"type":"function","name":"treasury","inputs":[],"outputs":[{"name":"","type":"address","internalType":"address"}],"stateMutability":"view"},{"type":"event","name":"PayoutTriggered","inputs":[{"name":"policyId","type":"uint256","indexed":true,"internalType":"uint256"}],"anonymous":false},{"type":"event","name":"PolicyCreated","inputs":[{"name":"id","type":"uint256","indexed":true,"internalType":"uint256"},{"name":"name","type":"string","indexed":false,"internalType":"string"},{"name":"season","type":"uint256","indexed":false,"internalType":"uint256"}],"anonymous":false},{"type":"event","name":"PolicyStatusChanged","inputs":[{"name":"policyId","type":"uint256","indexed":true,"internalType":"uint256"},{"name":"newStatus","type":"uint8","indexed":false,"internalType":"enum PolicyManager.PolicyStatus"}],"anonymous":false},{"type":"event","name":"SeasonReset","inputs":[{"name":"policyId","type":"uint256","indexed":true,"internalType":"uint256"},{"name":"newSeason","type":"uint256","indexed":false,"internalType":"uint256"}],"anonymous":false},{"type":"event","name":"Subscribed","inputs":[{"name":"farmer","type":"address","indexed":true,"internalType":"address"},{"name":"policyId","type":"uint256","indexed":true,"internalType":"uint256"},{"name":"season","type":"uint256","indexed":false,"internalType":"uint256"}],"anonymous":false}],"bytecode":{"object":"0x60806040526001600355348015610014575f5ffd5b50604051612c00380380612c0083398181016040528101906100369190610119565b335f5f6101000a81548173ffffffffffffffffffffffffffffffffffffffff021916908373ffffffffffffffffffffffffffffffffffffffff1602179055508060015f6101000a81548173ffffffffffffffffffffffffffffffffffffffff021916908373ffffffffffffffffffffffffffffffffffffffff16021790555050610144565b5f5ffd5b5f73ffffffffffffffffffffffffffffffffffffffff82169050919050565b5f6100e8826100bf565b9050919050565b6100f8816100de565b8114610102575f5ffd5b50565b5f81519050610113816100ef565b92915050565b5f6020828403121561012e5761012d6100bb565b5b5f61013b84828501610105565b91505092915050565b612aaf806101515f395ff3fe60806040526004361061010c575f3560e01c806390c2fc0611610094578063cad0b8db11610063578063cad0b8db1461037c578063cc038010146103a6578063e733fb3c146103eb578063f705814414610415578063fdb2e10d1461043d57610113565b806390c2fc06146102b3578063a4a3edc2146102ef578063bef3d6f714610317578063c362d54c1461033f57610113565b8063648315a6116100db578063648315a6146101d55780636f7657b1146101fd57806370b0d2f61461023957806372936da6146102615780638da5cb5b1461028957610113565b80630f574ba7146101175780633ae18a5a14610133578063449018a81461016f57806361d027b3146101ab57610113565b3661011357005b5f5ffd5b610131600480360381019061012c91906119b7565b610465565b005b34801561013e575f5ffd5b5061015960048036038101906101549190611a3c565b6109b1565b6040516101669190611b5e565b60405180910390f35b34801561017a575f5ffd5b5061019560048036038101906101909190611a3c565b610a6d565b6040516101a29190611b98565b60405180910390f35b3480156101b6575f5ffd5b506101bf610a97565b6040516101cc9190611bc0565b60405180910390f35b3480156101e0575f5ffd5b506101fb60048036038101906101f691906119b7565b610abc565b005b348015610208575f5ffd5b50610223600480360381019061021e9190611bd9565b610c12565b6040516102309190611cce565b60405180910390f35b348015610244575f5ffd5b5061025f600480360381019061025a91906119b7565b610cbe565b005b34801561026c575f5ffd5b50610287600480360381019061028291906119b7565b610e16565b005b348015610294575f5ffd5b5061029d6110d6565b6040516102aa9190611bc0565b60405180910390f35b3480156102be575f5ffd5b506102d960048036038101906102d49190611cee565b6110fa565b6040516102e69190611bc0565b60405180910390f35b3480156102fa575f5ffd5b5061031560048036038101906103109190611ea4565b61114d565b005b348015610322575f5ffd5b5061033d60048036038101906103389190611f71565b6112e8565b005b34801561034a575f5ffd5b5061036560048036038101906103609190611f9c565b6113b9565b604051610373929190611ffb565b60405180910390f35b348015610387575f5ffd5b506103906113fe565b60405161039d9190612022565b60405180910390f35b3480156103b1575f5ffd5b506103cc60048036038101906103c791906119b7565b611404565b6040516103e29a9998979695949392919061210e565b60405180910390f35b3480156103f6575f5ffd5b506103ff61156d565b60405161040c9190611bc0565b60405180910390f35b348015610420575f5ffd5b5061043b600480360381019061043691906119b7565b611592565b005b348015610448575f5ffd5b50610463600480360381019061045e91906119b7565b611794565b005b805f81118015610476575060035481105b6104b5576040517f08c379a00000000000000000000000000000000000000000000000000000000081526004016104ac906121f9565b60405180910390fd5b5f60045f8481526020019081526020015f2090505f60038111156104dc576104db61209b565b5b8160080160019054906101000a900460ff166003811115610500576104ff61209b565b5b14610540576040517f08c379a000000000000000000000000000000000000000000000000000000000815260040161053790612261565b60405180910390fd5b8060070154421115610587576040517f08c379a000000000000000000000000000000000000000000000000000000000815260040161057e906122c9565b60405180910390fd5b806003015434146105cd576040517f08c379a00000000000000000000000000000000000000000000000000000000081526004016105c490612331565b60405180910390fd5b806004015481600a015f3373ffffffffffffffffffffffffffffffffffffffff1673ffffffffffffffffffffffffffffffffffffffff1681526020019081526020015f205410610652576040517f08c379a0000000000000000000000000000000000000000000000000000000008152600401610649906123bf565b60405180910390fd5b806008015f9054906101000a900460ff16156107725760065f3373ffffffffffffffffffffffffffffffffffffffff1673ffffffffffffffffffffffffffffffffffffffff1681526020019081526020015f205f826004015481526020019081526020015f205f9054906101000a900460ff1615610705576040517f08c379a00000000000000000000000000000000000000000000000000000000081526004016106fc9061244d565b60405180910390fd5b600160065f3373ffffffffffffffffffffffffffffffffffffffff1673ffffffffffffffffffffffffffffffffffffffff1681526020019081526020015f205f836004015481526020019081526020015f205f6101000a81548160ff021916908315150217905550610810565b60065f3373ffffffffffffffffffffffffffffffffffffffff1673ffffffffffffffffffffffffffffffffffffffff1681526020019081526020015f205f826004015481526020019081526020015f205f9054906101000a900460ff161561080f576040517f08c379a0000000000000000000000000000000000000000000000000000000008152600401610806906124db565b60405180910390fd5b5b806004015481600a015f3373ffffffffffffffffffffffffffffffffffffffff1673ffffffffffffffffffffffffffffffffffffffff1681526020019081526020015f20819055508060090133908060018154018082558091505060019003905f5260205f20015f9091909190916101000a81548173ffffffffffffffffffffffffffffffffffffffff021916908373ffffffffffffffffffffffffffffffffffffffff16021790555060055f3373ffffffffffffffffffffffffffffffffffffffff1673ffffffffffffffffffffffffffffffffffffffff1681526020019081526020015f205f826004015481526020019081526020015f20604051806040016040528085815260200142815250908060018154018082558091505060019003905f5260205f2090600202015f909190919091505f820151815f0155602082015181600101555050823373ffffffffffffffffffffffffffffffffffffffff167ff94991dcbea6e8ac439cbc93bd9c62a4d39f04e0ad656df9a703f13552c2787f83600401546040516109a49190612022565b60405180910390a3505050565b606060055f8473ffffffffffffffffffffffffffffffffffffffff1673ffffffffffffffffffffffffffffffffffffffff1681526020019081526020015f205f8381526020019081526020015f20805480602002602001604051908101604052809291908181526020015f905b82821015610a61578382905f5260205f2090600202016040518060400160405290815f820154815260200160018201548152505081526020019060010190610a1e565b50505050905092915050565b6006602052815f5260405f20602052805f5260405f205f915091509054906101000a900460ff1681565b60015f9054906101000a900473ffffffffffffffffffffffffffffffffffffffff1681565b5f5f9054906101000a900473ffffffffffffffffffffffffffffffffffffffff1673ffffffffffffffffffffffffffffffffffffffff163373ffffffffffffffffffffffffffffffffffffffff1614610b4a576040517f08c379a0000000000000000000000000000000000000000000000000000000008152600401610b4190612543565b60405180910390fd5b805f81118015610b5b575060035481105b610b9a576040517f08c379a0000000000000000000000000000000000000000000000000000000008152600401610b91906121f9565b60405180910390fd5b5f60045f8481526020019081526020015f2060080160016101000a81548160ff02191690836003811115610bd157610bd061209b565b5b0217905550817f4a5abdea00fd571953dae64435e298af2d1c3ddb3897c6e59d49c617b6bb36c55f604051610c069190612561565b60405180910390a25050565b606060075f8481526020019081526020015f205f8381526020019081526020015f20805480602002602001604051908101604052809291908181526020018280548015610cb157602002820191905f5260205f20905b815f9054906101000a900473ffffffffffffffffffffffffffffffffffffffff1673ffffffffffffffffffffffffffffffffffffffff1681526020019060010190808311610c68575b5050505050905092915050565b5f5f9054906101000a900473ffffffffffffffffffffffffffffffffffffffff1673ffffffffffffffffffffffffffffffffffffffff163373ffffffffffffffffffffffffffffffffffffffff1614610d4c576040517f08c379a0000000000000000000000000000000000000000000000000000000008152600401610d4390612543565b60405180910390fd5b805f81118015610d5d575060035481105b610d9c576040517f08c379a0000000000000000000000000000000000000000000000000000000008152600401610d93906121f9565b60405180910390fd5b600160045f8481526020019081526020015f2060080160016101000a81548160ff02191690836003811115610dd457610dd361209b565b5b0217905550817f4a5abdea00fd571953dae64435e298af2d1c3ddb3897c6e59d49c617b6bb36c56001604051610e0a9190612561565b60405180910390a25050565b5f5f9054906101000a900473ffffffffffffffffffffffffffffffffffffffff1673ffffffffffffffffffffffffffffffffffffffff163373ffffffffffffffffffffffffffffffffffffffff1614610ea4576040517f08c379a0000000000000000000000000000000000000000000000000000000008152600401610e9b90612543565b60405180910390fd5b805f81118015610eb5575060035481105b610ef4576040517f08c379a0000000000000000000000000000000000000000000000000000000008152600401610eeb906121f9565b60405180910390fd5b5f60045f8481526020019081526020015f20905060026003811115610f1c57610f1b61209b565b5b8160080160019054906101000a900460ff166003811115610f4057610f3f61209b565b5b1480610f81575060016003811115610f5b57610f5a61209b565b5b8160080160019054906101000a900460ff166003811115610f7f57610f7e61209b565b5b145b610fc0576040517f08c379a0000000000000000000000000000000000000000000000000000000008152600401610fb7906125ea565b60405180910390fd5b8060090160075f8581526020019081526020015f205f836004015481526020019081526020015f20908054610ff69291906118ec565b50806009015f611006919061193a565b806004015481600a015f3373ffffffffffffffffffffffffffffffffffffffff1673ffffffffffffffffffffffffffffffffffffffff1681526020019081526020015f20819055506001816004015f8282546110629190612635565b925050819055505f8160080160016101000a81548160ff021916908360038111156110905761108f61209b565b5b0217905550827f25b358bc4b896e9b21be6979c5b1093d8ad8585f9f10320b3e56135e6c1bc07882600401546040516110c99190612022565b60405180910390a2505050565b5f5f9054906101000a900473ffffffffffffffffffffffffffffffffffffffff1681565b6007602052825f5260405f20602052815f5260405f20818154811061111d575f80fd5b905f5260205f20015f92509250509054906101000a900473ffffffffffffffffffffffffffffffffffffffff1681565b5f5f9054906101000a900473ffffffffffffffffffffffffffffffffffffffff1673ffffffffffffffffffffffffffffffffffffffff163373ffffffffffffffffffffffffffffffffffffffff16146111db576040517f08c379a00000000000000000000000000000000000000000000000000000000081526004016111d290612543565b60405180910390fd5b5f60045f60035481526020019081526020015f209050600354815f01819055508881600101908161120c9190612865565b5087816002018190555086816003018190555085816004018190555084816005018190555083816006018190555082816007018190555081816008015f6101000a81548160ff0219169083151502179055505f8160080160016101000a81548160ff021916908360038111156112855761128461209b565b5b02179055506003547f961874f6cb039d159501db23f01ff4a09b8ac80d2bf3a8051044b5f7f49da95b8a886040516112be929190612934565b60405180910390a260035f8154809291906112d890612962565b9190505550505050505050505050565b5f5f9054906101000a900473ffffffffffffffffffffffffffffffffffffffff1673ffffffffffffffffffffffffffffffffffffffff163373ffffffffffffffffffffffffffffffffffffffff1614611376576040517f08c379a000000000000000000000000000000000000000000000000000000000815260040161136d90612543565b60405180910390fd5b8060025f6101000a81548173ffffffffffffffffffffffffffffffffffffffff021916908373ffffffffffffffffffffffffffffffffffffffff16021790555050565b6005602052825f5260405f20602052815f5260405f2081815481106113dc575f80fd5b905f5260205f2090600202015f925092505050805f0154908060010154905082565b60035481565b60605f5f5f5f5f5f5f5f5f8a5f81118015611420575060035481105b61145f576040517f08c379a0000000000000000000000000000000000000000000000000000000008152600401611456906121f9565b60405180910390fd5b5f60045f8e81526020019081526020015f20905080600101816002015482600301548360080160019054906101000a900460ff168460040154856005015486600601548760070154886008015f9054906101000a900460ff1689600901805490508980546114cc90612695565b80601f01602080910402602001604051908101604052809291908181526020018280546114f890612695565b80156115435780601f1061151a57610100808354040283529160200191611543565b820191905f5260205f20905b81548152906001019060200180831161152657829003601f168201915b505050505099509b509b509b509b509b509b509b509b509b509b5050509193959799509193959799565b60025f9054906101000a900473ffffffffffffffffffffffffffffffffffffffff1681565b805f811180156115a3575060035481105b6115e2576040517f08c379a00000000000000000000000000000000000000000000000000000000081526004016115d9906121f9565b60405180910390fd5b60025f9054906101000a900473ffffffffffffffffffffffffffffffffffffffff1673ffffffffffffffffffffffffffffffffffffffff163373ffffffffffffffffffffffffffffffffffffffff1614611671576040517f08c379a0000000000000000000000000000000000000000000000000000000008152600401611668906129f3565b60405180910390fd5b5f60045f8481526020019081526020015f2090505f60038111156116985761169761209b565b5b8160080160019054906101000a900460ff1660038111156116bc576116bb61209b565b5b146116fc576040517f08c379a00000000000000000000000000000000000000000000000000000000081526004016116f390612a5b565b60405180910390fd5b60028160080160016101000a81548160ff021916908360038111156117245761172361209b565b5b0217905550827f4a5abdea00fd571953dae64435e298af2d1c3ddb3897c6e59d49c617b6bb36c5600260405161175a9190612561565b60405180910390a2827f0df2c4775cef02ff47e4a6cd56d2753c6720bd071d12b2714d58b6ebcb4d14a560405160405180910390a2505050565b5f5f9054906101000a900473ffffffffffffffffffffffffffffffffffffffff1673ffffffffffffffffffffffffffffffffffffffff163373ffffffffffffffffffffffffffffffffffffffff1614611822576040517f08c379a000000000000000000000000000000000000000000000000000000000815260040161181990612543565b60405180910390fd5b805f81118015611833575060035481105b611872576040517f08c379a0000000000000000000000000000000000000000000000000000000008152600401611869906121f9565b60405180910390fd5b600360045f8481526020019081526020015f2060080160016101000a81548160ff021916908360038111156118aa576118a961209b565b5b0217905550817f4a5abdea00fd571953dae64435e298af2d1c3ddb3897c6e59d49c617b6bb36c560036040516118e09190612561565b60405180910390a25050565b828054828255905f5260205f20908101928215611929575f5260205f209182015b8281111561192857825482559160010191906001019061190d565b5b5090506119369190611958565b5090565b5080545f8255905f5260205f20908101906119559190611958565b50565b5b8082111561196f575f815f905550600101611959565b5090565b5f604051905090565b5f5ffd5b5f5ffd5b5f819050919050565b61199681611984565b81146119a0575f5ffd5b50565b5f813590506119b18161198d565b92915050565b5f602082840312156119cc576119cb61197c565b5b5f6119d9848285016119a3565b91505092915050565b5f73ffffffffffffffffffffffffffffffffffffffff82169050919050565b5f611a0b826119e2565b9050919050565b611a1b81611a01565b8114611a25575f5ffd5b50565b5f81359050611a3681611a12565b92915050565b5f5f60408385031215611a5257611a5161197c565b5b5f611a5f85828601611a28565b9250506020611a70858286016119a3565b9150509250929050565b5f81519050919050565b5f82825260208201905092915050565b5f819050602082019050919050565b611aac81611984565b82525050565b604082015f820151611ac65f850182611aa3565b506020820151611ad96020850182611aa3565b50505050565b5f611aea8383611ab2565b60408301905092915050565b5f602082019050919050565b5f611b0c82611a7a565b611b168185611a84565b9350611b2183611a94565b805f5b83811015611b51578151611b388882611adf565b9750611b4383611af6565b925050600181019050611b24565b5085935050505092915050565b5f6020820190508181035f830152611b768184611b02565b905092915050565b5f8115159050919050565b611b9281611b7e565b82525050565b5f602082019050611bab5f830184611b89565b92915050565b611bba81611a01565b82525050565b5f602082019050611bd35f830184611bb1565b92915050565b5f5f60408385031215611bef57611bee61197c565b5b5f611bfc858286016119a3565b9250506020611c0d858286016119a3565b9150509250929050565b5f81519050919050565b5f82825260208201905092915050565b5f819050602082019050919050565b611c4981611a01565b82525050565b5f611c5a8383611c40565b60208301905092915050565b5f602082019050919050565b5f611c7c82611c17565b611c868185611c21565b9350611c9183611c31565b805f5b83811015611cc1578151611ca88882611c4f565b9750611cb383611c66565b925050600181019050611c94565b5085935050505092915050565b5f6020820190508181035f830152611ce68184611c72565b905092915050565b5f5f5f60608486031215611d0557611d0461197c565b5b5f611d12868287016119a3565b9350506020611d23868287016119a3565b9250506040611d34868287016119a3565b9150509250925092565b5f5ffd5b5f5ffd5b5f601f19601f8301169050919050565b7f4e487b71000000000000000000000000000000000000000000000000000000005f52604160045260245ffd5b611d8c82611d46565b810181811067ffffffffffffffff82111715611dab57611daa611d56565b5b80604052505050565b5f611dbd611973565b9050611dc98282611d83565b919050565b5f67ffffffffffffffff821115611de857611de7611d56565b5b611df182611d46565b9050602081019050919050565b828183375f83830152505050565b5f611e1e611e1984611dce565b611db4565b905082815260208101848484011115611e3a57611e39611d42565b5b611e45848285611dfe565b509392505050565b5f82601f830112611e6157611e60611d3e565b5b8135611e71848260208601611e0c565b91505092915050565b611e8381611b7e565b8114611e8d575f5ffd5b50565b5f81359050611e9e81611e7a565b92915050565b5f5f5f5f5f5f5f5f610100898b031215611ec157611ec061197c565b5b5f89013567ffffffffffffffff811115611ede57611edd611980565b5b611eea8b828c01611e4d565b9850506020611efb8b828c016119a3565b9750506040611f0c8b828c016119a3565b9650506060611f1d8b828c016119a3565b9550506080611f2e8b828c016119a3565b94505060a0611f3f8b828c016119a3565b93505060c0611f508b828c016119a3565b92505060e0611f618b828c01611e90565b9150509295985092959890939650565b5f60208284031215611f8657611f8561197c565b5b5f611f9384828501611a28565b91505092915050565b5f5f5f60608486031215611fb357611fb261197c565b5b5f611fc086828701611a28565b9350506020611fd1868287016119a3565b9250506040611fe2868287016119a3565b9150509250925092565b611ff581611984565b82525050565b5f60408201905061200e5f830185611fec565b61201b6020830184611fec565b9392505050565b5f6020820190506120355f830184611fec565b92915050565b5f81519050919050565b5f82825260208201905092915050565b8281835e5f83830152505050565b5f61206d8261203b565b6120778185612045565b9350612087818560208601612055565b61209081611d46565b840191505092915050565b7f4e487b71000000000000000000000000000000000000000000000000000000005f52602160045260245ffd5b600481106120d9576120d861209b565b5b50565b5f8190506120e9826120c8565b919050565b5f6120f8826120dc565b9050919050565b612108816120ee565b82525050565b5f610140820190508181035f830152612127818d612063565b9050612136602083018c611fec565b612143604083018b611fec565b612150606083018a6120ff565b61215d6080830189611fec565b61216a60a0830188611fec565b61217760c0830187611fec565b61218460e0830186611fec565b612192610100830185611b89565b6121a0610120830184611fec565b9b9a5050505050505050505050565b7f506f6c69637920646f6573206e6f7420657869737400000000000000000000005f82015250565b5f6121e3601583612045565b91506121ee826121af565b602082019050919050565b5f6020820190508181035f830152612210816121d7565b9050919050565b7f506f6c696379206973206e6f74206163746976650000000000000000000000005f82015250565b5f61224b601483612045565b915061225682612217565b602082019050919050565b5f6020820190508181035f8301526122788161223f565b9050919050565b7f537562736372697074696f6e20646561646c696e6520706173736564000000005f82015250565b5f6122b3601c83612045565b91506122be8261227f565b602082019050919050565b5f6020820190508181035f8301526122e0816122a7565b9050919050565b7f496e636f7272656374207072656d69756d20616d6f756e7400000000000000005f82015250565b5f61231b601883612045565b9150612326826122e7565b602082019050919050565b5f6020820190508181035f8301526123488161230f565b9050919050565b7f416c7265616479207375627363726962656420746f207468697320706f6c69635f8201527f79207468697320736561736f6e00000000000000000000000000000000000000602082015250565b5f6123a9602d83612045565b91506123b48261234f565b604082019050919050565b5f6020820190508181035f8301526123d68161239d565b9050919050565b7f416c7265616479207375627363726962656420746f20616e6f7468657220706f5f8201527f6c696379207468697320736561736f6e00000000000000000000000000000000602082015250565b5f612437603083612045565b9150612442826123dd565b604082019050919050565b5f6020820190508181035f8301526124648161242b565b9050919050565b7f43616e6e6f742073756273637269626520746f207375622d706f6c69637920615f8201527f667465722066756c6c2d736561736f6e00000000000000000000000000000000602082015250565b5f6124c5603083612045565b91506124d08261246b565b604082019050919050565b5f6020820190508181035f8301526124f2816124b9565b9050919050565b7f4f6e6c79206f776e65722063616e2063616c6c207468697300000000000000005f82015250565b5f61252d601883612045565b9150612538826124f9565b602082019050919050565b5f6020820190508181035f83015261255a81612521565b9050919050565b5f6020820190506125745f8301846120ff565b92915050565b7f506f6c696379206d75737420626520636f6d706c65746564206f7220706175735f8201527f6564000000000000000000000000000000000000000000000000000000000000602082015250565b5f6125d4602283612045565b91506125df8261257a565b604082019050919050565b5f6020820190508181035f830152612601816125c8565b9050919050565b7f4e487b71000000000000000000000000000000000000000000000000000000005f52601160045260245ffd5b5f61263f82611984565b915061264a83611984565b925082820190508082111561266257612661612608565b5b92915050565b7f4e487b71000000000000000000000000000000000000000000000000000000005f52602260045260245ffd5b5f60028204905060018216806126ac57607f821691505b6020821081036126bf576126be612668565b5b50919050565b5f819050815f5260205f209050919050565b5f6020601f8301049050919050565b5f82821b905092915050565b5f600883026127217fffffffffffffffffffffffffffffffffffffffffffffffffffffffffffffffff826126e6565b61272b86836126e6565b95508019841693508086168417925050509392505050565b5f819050919050565b5f61276661276161275c84611984565b612743565b611984565b9050919050565b5f819050919050565b61277f8361274c565b61279361278b8261276d565b8484546126f2565b825550505050565b5f5f905090565b6127aa61279b565b6127b5818484612776565b505050565b5b818110156127d8576127cd5f826127a2565b6001810190506127bb565b5050565b601f82111561281d576127ee816126c5565b6127f7846126d7565b81016020851015612806578190505b61281a612812856126d7565b8301826127ba565b50505b505050565b5f82821c905092915050565b5f61283d5f1984600802612822565b1980831691505092915050565b5f612855838361282e565b9150826002028217905092915050565b61286e8261203b565b67ffffffffffffffff81111561288757612886611d56565b5b6128918254612695565b61289c8282856127dc565b5f60209050601f8311600181146128cd575f84156128bb578287015190505b6128c5858261284a565b86555061292c565b601f1984166128db866126c5565b5f5b82811015612902578489015182556001820191506020850194506020810190506128dd565b8683101561291f578489015161291b601f89168261282e565b8355505b6001600288020188555050505b505050505050565b5f6040820190508181035f83015261294c8185612063565b905061295b6020830184611fec565b9392505050565b5f61296c82611984565b91507fffffffffffffffffffffffffffffffffffffffffffffffffffffffffffffffff820361299e5761299d612608565b5b600182019050919050565b7f4f6e6c79205061796f7574456e67696e652063616e2063616c6c2074686973005f82015250565b5f6129dd601f83612045565b91506129e8826129a9565b602082019050919050565b5f6020820190508181035f830152612a0a816129d1565b9050919050565b7f506f6c696379206e6f74206163746976650000000000000000000000000000005f82015250565b5f612a45601183612045565b9150612a5082612a11565b602082019050919050565b5f6020820190508181035f830152612a7281612a39565b905091905056fea264697066735822122015e5703d1a339b81a9857ec98b4dc627432e03d10c0c04cfa5057824cffcaf5c64736f6c634300081e0033","linkReferences":{}},"methodIdentifiers":{"createPolicy(string,uint256,uint256,uint256,uint256,uint256,uint256,bool)":"a4a3edc2","farmerPolicies(address,uint256,uint256)":"c362d54c","farmerSeasonFullCover(address,uint256)":"449018a8","getFarmerPolicies(address,uint256)":"3ae18a5a","getHistoricalSubscribers(uint256,uint256)":"6f7657b1","getPolicyDetails(uint256)":"cc038010","hidePolicy(uint256)":"fdb2e10d","historicalSubscribers(uint256,uint256,uint256)":"90c2fc06","markPolicyAsPayout(uint256)":"f7058144","nextPolicyId()":"cad0b8db","owner()":"8da5cb5b","pausePolicy(uint256)":"70b0d2f6","payoutEngine()":"e733fb3c","resetSeasonState(uint256)":"72936da6","resumePolicy(uint256)":"648315a6","setPayoutEngine(address)":"bef3d6f7","subscribe(uint256)":"0f574ba7","treasury()":"61d027b3"},"id":21}