{"abi":[{"type":"constructor","inputs":[],"stateMutability":"nonpayable"},{"type":"function","name":"authorizedManagers","inputs":[{"name":"","type":"address","internalType":"address"}],"outputs":[{"name":"","type":"bool","internalType":"bool"}],"stateMutability":"view"},{"type":"function","name":"deposit","inputs":[{"name":"farmer","type":"address","internalType":"address"}],"outputs":[],"stateMutability":"payable"},{"type":"function","name":"farmerBalances","inputs":[{"name":"","type":"address","internalType":"address"}],"outputs":[{"name":"","type":"uint256","internalType":"uint256"}],"stateMutability":"view"},{"type":"function","name":"getBalance","inputs":[],"outputs":[{"name":"","type":"uint256","internalType":"uint256"}],"stateMutability":"view"},{"type":"function","name":"owner","inputs":[],"outputs":[{"name":"","type":"address","internalType":"address"}],"stateMutability":"view"},{"type":"function","name":"renounceOwnership","inputs":[],"outputs":[],"stateMutability":"nonpayable"},{"type":"function","name":"setManager","inputs":[{"name":"_manager","type":"address","internalType":"address"},{"name":"_enabled","type":"bool","internalType":"bool"}],"outputs":[],"stateMutability":"nonpayable"},{"type":"function","name":"totalCollected","inputs":[],"outputs":[{"name":"","type":"uint256","internalType":"uint256"}],"stateMutability":"view"},{"type":"function","name":"transferOwnership","inputs":[{"name":"newOwner","type":"address","internalType":"address"}],"outputs":[],"stateMutability":"nonpayable"},{"type":"function","name":"withdraw","inputs":[{"name":"to","type":"address","internalType":"address payable"},{"name":"amount","type":"uint256","internalType":"uint256"}],"outputs":[],"stateMutability":"nonpayable"},{"type":"function","name":"withdrawAll","inputs":[{"name":"to","type":"address","internalType":"address payable"}],"outputs":[],"stateMutability":"nonpayable"},{"type":"event","name":"Deposit","inputs":[{"name":"manager","type":"address","indexed":true,"internalType":"address"},{"name":"farmer","type":"address","indexed":true,"internalType":"address"},{"name":"amount","type":"uint256","indexed":false,"internalType":"uint256"}],"anonymous":false},{"type":"event","name":"ManagerUpdated","inputs":[{"name":"manager","type":"address","indexed":true,"internalType":"address"},{"name":"enabled","type":"bool","indexed":false,"internalType":"bool"}],"anonymous":false},{"type":"event","name":"OwnershipTransferred","inputs":[{"name":"previousOwner","type":"address","indexed":true,"internalType":"address"},{"name":"newOwner","type":"address","indexed":true,"internalType":"address"}],"anonymous":false},{"type":"event","name":"Withdraw","inputs":[{"name":"to","type":"address","indexed":true,"internalType":"address"},{"name":"amount","type":"uint256","indexed":false,"internalType":"uint256"}],"anonymous":false},{"type":"error","name":"OwnableInvalidOwner","inputs":[{"name":"owner","type":"address","internalType":"address"}]},{"type":"error","name":"OwnableUnauthorizedAccount","inputs":[{"name":"account","type":"address","internalType":"address"}]},{"type":"error","name":"ReentrancyGuardReentrantCall","inputs":[]}],"bytecode":{"object":"0x608060405234801561000f575f5ffd5b50335f73ffffffffffffffffffffffffffffffffffffffff168173ffffffffffffffffffffffffffffffffffffffff1603610081575f6040517f1e4fbdf7000000000000000000000000000000000000000000000000000000008152600401610078919061019d565b60405180910390fd5b6100908161009d60201b60201c565b50600180819055506101b6565b5f5f5f9054906101000a900473ffffffffffffffffffffffffffffffffffffffff169050815f5f6101000a81548173ffffffffffffffffffffffffffffffffffffffff021916908373ffffffffffffffffffffffffffffffffffffffff1602179055508173ffffffffffffffffffffffffffffffffffffffff168173ffffffffffffffffffffffffffffffffffffffff167f8be0079c531659141344cd1fd0a4f28419497f9722a3daafe3b4186f6b6457e060405160405180910390a35050565b5f73ffffffffffffffffffffffffffffffffffffffff82169050919050565b5f6101878261015e565b9050919050565b6101978161017d565b82525050565b5f6020820190506101b05f83018461018e565b92915050565b61107b806101c35f395ff3fe60806040526004361061009b575f3560e01c8063a5e90eee11610063578063a5e90eee14610181578063e29eb836146101a9578063f2fde38b146101d3578063f340fa01146101fb578063f3fef3a314610217578063fa09e6301461023f5761009b565b80630a3cb21b1461009f57806312065fe0146100db578063715018a6146101055780638da5cb5b1461011b578063950f222e14610145575b5f5ffd5b3480156100aa575f5ffd5b506100c560048036038101906100c09190610b37565b610267565b6040516100d29190610b7c565b60405180910390f35b3480156100e6575f5ffd5b506100ef610284565b6040516100fc9190610bad565b60405180910390f35b348015610110575f5ffd5b5061011961028b565b005b348015610126575f5ffd5b5061012f61029e565b60405161013c9190610bd5565b60405180910390f35b348015610150575f5ffd5b5061016b60048036038101906101669190610b37565b6102c5565b6040516101789190610bad565b60405180910390f35b34801561018c575f5ffd5b506101a760048036038101906101a29190610c18565b6102da565b005b3480156101b4575f5ffd5b506101bd6103f6565b6040516101ca9190610bad565b60405180910390f35b3480156101de575f5ffd5b506101f960048036038101906101f49190610b37565b6103fc565b005b61021560048036038101906102109190610b37565b610480565b005b348015610222575f5ffd5b5061023d60048036038101906102389190610cbb565b61061e565b005b34801561024a575f5ffd5b5061026560048036038101906102609190610cf9565b6107e2565b005b6002602052805f5260405f205f915054906101000a900460ff1681565b5f47905090565b61029361093b565b61029c5f6109c2565b565b5f5f5f9054906101000a900473ffffffffffffffffffffffffffffffffffffffff16905090565b6003602052805f5260405f205f915090505481565b6102e261093b565b5f73ffffffffffffffffffffffffffffffffffffffff168273ffffffffffffffffffffffffffffffffffffffff1603610350576040517f08c379a000000000000000000000000000000000000000000000000000000000815260040161034790610d7e565b60405180910390fd5b8060025f8473ffffffffffffffffffffffffffffffffffffffff1673ffffffffffffffffffffffffffffffffffffffff1681526020019081526020015f205f6101000a81548160ff0219169083151502179055508173ffffffffffffffffffffffffffffffffffffffff167fdbb9ed174593e4f785d50b5333b66e44e8ccfb28737fa34896411100a93d100e826040516103ea9190610b7c565b60405180910390a25050565b60045481565b61040461093b565b5f73ffffffffffffffffffffffffffffffffffffffff168173ffffffffffffffffffffffffffffffffffffffff1603610474575f6040517f1e4fbdf700000000000000000000000000000000000000000000000000000000815260040161046b9190610bd5565b60405180910390fd5b61047d816109c2565b50565b60025f3373ffffffffffffffffffffffffffffffffffffffff1673ffffffffffffffffffffffffffffffffffffffff1681526020019081526020015f205f9054906101000a900460ff16610509576040517f08c379a000000000000000000000000000000000000000000000000000000000815260040161050090610de6565b60405180910390fd5b5f341161054b576040517f08c379a000000000000000000000000000000000000000000000000000000000815260040161054290610e4e565b60405180910390fd5b3460035f8373ffffffffffffffffffffffffffffffffffffffff1673ffffffffffffffffffffffffffffffffffffffff1681526020019081526020015f205f8282546105979190610e99565b925050819055503460045f8282546105af9190610e99565b925050819055508073ffffffffffffffffffffffffffffffffffffffff163373ffffffffffffffffffffffffffffffffffffffff167f5548c837ab068cf56a2c2479df0882a4922fd203edb7517321831d95078c5f62346040516106139190610bad565b60405180910390a350565b61062661093b565b61062e610a83565b5f73ffffffffffffffffffffffffffffffffffffffff168273ffffffffffffffffffffffffffffffffffffffff160361069c576040517f08c379a000000000000000000000000000000000000000000000000000000000815260040161069390610d7e565b60405180910390fd5b804710156106df576040517f08c379a00000000000000000000000000000000000000000000000000000000081526004016106d690610f16565b60405180910390fd5b5f8273ffffffffffffffffffffffffffffffffffffffff168260405161070490610f61565b5f6040518083038185875af1925050503d805f811461073e576040519150601f19603f3d011682016040523d82523d5f602084013e610743565b606091505b5050905080610787576040517f08c379a000000000000000000000000000000000000000000000000000000000815260040161077e90610fbf565b60405180910390fd5b8273ffffffffffffffffffffffffffffffffffffffff167f884edad9ce6fa2440d8a54cc123490eb96d2768479d49ff9c7366125a9424364836040516107cd9190610bad565b60405180910390a2506107de610ac9565b5050565b6107ea61093b565b6107f2610a83565b5f4790505f8111610838576040517f08c379a000000000000000000000000000000000000000000000000000000000815260040161082f90611027565b60405180910390fd5b5f8273ffffffffffffffffffffffffffffffffffffffff168260405161085d90610f61565b5f6040518083038185875af1925050503d805f8114610897576040519150601f19603f3d011682016040523d82523d5f602084013e61089c565b606091505b50509050806108e0576040517f08c379a00000000000000000000000000000000000000000000000000000000081526004016108d790610fbf565b60405180910390fd5b8273ffffffffffffffffffffffffffffffffffffffff167f884edad9ce6fa2440d8a54cc123490eb96d2768479d49ff9c7366125a9424364836040516109269190610bad565b60405180910390a25050610938610ac9565b50565b610943610ad2565b73ffffffffffffffffffffffffffffffffffffffff1661096161029e565b73ffffffffffffffffffffffffffffffffffffffff16146109c057610984610ad2565b6040517f118cdaa70000000000000000000000000000000000000000000000000000000081526004016109b79190610bd5565b60405180910390fd5b565b5f5f5f9054906101000a900473ffffffffffffffffffffffffffffffffffffffff169050815f5f6101000a81548173ffffffffffffffffffffffffffffffffffffffff021916908373ffffffffffffffffffffffffffffffffffffffff1602179055508173ffffffffffffffffffffffffffffffffffffffff168173ffffffffffffffffffffffffffffffffffffffff167f8be0079c531659141344cd1fd0a4f28419497f9722a3daafe3b4186f6b6457e060405160405180910390a35050565b600260015403610abf576040517f3ee5aeb500000000000000000000000000000000000000000000000000000000815260040160405180910390fd5b6002600181905550565b60018081905550565b5f33905090565b5f5ffd5b5f73ffffffffffffffffffffffffffffffffffffffff82169050919050565b5f610b0682610add565b9050919050565b610b1681610afc565b8114610b20575f5ffd5b50565b5f81359050610b3181610b0d565b92915050565b5f60208284031215610b4c57610b4b610ad9565b5b5f610b5984828501610b23565b91505092915050565b5f8115159050919050565b610b7681610b62565b82525050565b5f602082019050610b8f5f830184610b6d565b92915050565b5f819050919050565b610ba781610b95565b82525050565b5f602082019050610bc05f830184610b9e565b92915050565b610bcf81610afc565b82525050565b5f602082019050610be85f830184610bc6565b92915050565b610bf781610b62565b8114610c01575f5ffd5b50565b5f81359050610c1281610bee565b92915050565b5f5f60408385031215610c2e57610c2d610ad9565b5b5f610c3b85828601610b23565b9250506020610c4c85828601610c04565b9150509250929050565b5f610c6082610add565b9050919050565b610c7081610c56565b8114610c7a575f5ffd5b50565b5f81359050610c8b81610c67565b92915050565b610c9a81610b95565b8114610ca4575f5ffd5b50565b5f81359050610cb581610c91565b92915050565b5f5f60408385031215610cd157610cd0610ad9565b5b5f610cde85828601610c7d565b9250506020610cef85828601610ca7565b9150509250929050565b5f60208284031215610d0e57610d0d610ad9565b5b5f610d1b84828501610c7d565b91505092915050565b5f82825260208201905092915050565b7f54726561737572793a207a65726f2061646472657373000000000000000000005f82015250565b5f610d68601683610d24565b9150610d7382610d34565b602082019050919050565b5f6020820190508181035f830152610d9581610d5c565b9050919050565b7f54726561737572793a206e6f7420617574686f72697a6564206d616e616765725f82015250565b5f610dd0602083610d24565b9150610ddb82610d9c565b602082019050919050565b5f6020820190508181035f830152610dfd81610dc4565b9050919050565b7f54726561737572793a207a65726f206465706f736974000000000000000000005f82015250565b5f610e38601683610d24565b9150610e4382610e04565b602082019050919050565b5f6020820190508181035f830152610e6581610e2c565b9050919050565b7f4e487b71000000000000000000000000000000000000000000000000000000005f52601160045260245ffd5b5f610ea382610b95565b9150610eae83610b95565b9250828201905080821115610ec657610ec5610e6c565b5b92915050565b7f54726561737572793a20696e73756666696369656e742062616c616e636500005f82015250565b5f610f00601e83610d24565b9150610f0b82610ecc565b602082019050919050565b5f6020820190508181035f830152610f2d81610ef4565b9050919050565b5f81905092915050565b50565b5f610f4c5f83610f34565b9150610f5782610f3e565b5f82019050919050565b5f610f6b82610f41565b9150819050919050565b7f54726561737572793a207472616e73666572206661696c6564000000000000005f82015250565b5f610fa9601983610d24565b9150610fb482610f75565b602082019050919050565b5f6020820190508181035f830152610fd681610f9d565b9050919050565b7f54726561737572793a207a65726f2062616c616e6365000000000000000000005f82015250565b5f611011601683610d24565b915061101c82610fdd565b602082019050919050565b5f6020820190508181035f83015261103e81611005565b905091905056fea264697066735822122028c1d456bf17d2536e7e767e98ff6bea9ab70b027d0eb724c686f637ea145ebd64736f6c634300081e0033","linkReferences":{}},"methodIdentifiers":{"authorizedManagers(address)":"0a3cb21b","deposit(address)":"f340fa01","farmerBalances(address)":"950f222e","getBalance()":"12065fe0","owner()":"8da5cb5b","renounceOwnership()":"715018a6","setManager(address,bool)":"a5e90eee","totalCollected()":"e29eb836","transferOwnership(address)":"f2fde38b","withdraw(address,uint256)":"f3fef3a3","withdrawAll(address)":"fa09e630"},"id":25}